:020000040800F2
:1000000070670020B1630008255600089D63000852
:100010009D6300089D6300089D63000800000000C8
:10002000000000000000000000000000FD64000867
:100030009D6300080000000055640008D90F010806
:10004000696800086968000869680008696800084C
:10005000696800086968000869680008696800083C
:10006000696800086968000869680008696800082C
:10007000696800086968000869680008696800081C
:10008000696800086968000869680008696800080C
:1000900069680008696800086968000869680008FC
:1000A00069680008696800086968000869680008EC
:1000B00069680008696800086968000869680008DC
:1000C00069680008696800086968000869680008CC
:1000D00069680008696800086968000869680008BC
:1000E00069680008696800086968000869680008AC
:1000F000696800086968000869680008696800089C
:10010000696800086968000869680008696800088B
:10011000696800086968000869680008696800087B
:10012000696800086968000869680008696800086B
:10013000696800086968000869680008696800085B
:10014000696800086968000869680008696800084B
:10015000696800086968000869680008696800083B
:10016000696800086968000869680008696800082B
:10017000696800086968000869680008696800081B
:080180006968000869680008C5
:1001880081F0004102E000BF83F0004330B54FEA40
:1001980041044FEA430594EA050F08BF90EA020FAD
:1001A8001FBF54EA000C55EA020C7FEA645C7FEA40
:1001B800655C00F0E2804FEA5454D4EB5555B8BF63
:1001C8006D420CDD2C4480EA020281EA030382EAD4
:1001D800000083EA010180EA020281EA0303362D66
:1001E80088BF30BD11F0004F4FEA01314FF4801C39
:1001F8004CEA113102D0404261EB410113F0004F4B
:100208004FEA03334CEA133302D0524263EB430301
:1002180094EA050F00F0A780A4F10104D5F1200E9F
:100228000DDB02FA0EFC22FA05F2801841F10001FA
:1002380003FA0EF2801843FA05F359410EE0A5F1CE
:1002480020050EF1200E012A03FA0EFC28BF4CF0FF
:10025800020C43FA05F3C01851EBE37101F00045B5
:1002680007D54FF0000EDCF1000C7EEB00006EEBC2
:100278000101B1F5801F1BD3B1F5001F0CD349084C
:100288005FEA30004FEA3C0C04F101044FEA4452A3
:1002980012F5800F80F09A80BCF1004F08BF5FEA2A
:1002A800500C50F1000041EB045141EA050130BD0A
:1002B8005FEA4C0C404141EB0101013C28BFB1F51C
:1002C800801FE9D291F0000F04BF01460020B1FA67
:1002D80081F308BF2033A3F10B03B3F120020CDA3A
:1002E8000C3208DD02F1140CC2F10C0201FA0CF018
:1002F80021FA02F10CE002F11402D8BFC2F1200C7D
:1003080001FA02F120FA0CFCDCBF41EA0C01904032
:10031800E41AA2BF01EB0451294330BD6FEA04047B
:100328001F3C1CDA0C340EDC04F11404C4F1200266
:1003380020FA04F001FA02F340EA030021FA04F378
:1003480045EA030130BDC4F10C04C4F1200220FACF
:1003580002F001FA04F340EA0300294630BD21FA0D
:1003680004F0294630BD94F0000F83F4801306BFD3
:1003780081F480110134013D4EE77FEA645C18BFC7
:100388007FEA655C29D094EA050F08BF90EA020F5E
:1003980005D054EA000C04BF1946104630BD91EA56
:1003A800030F1EBF0021002030BD5FEA545C05D159
:1003B8004000494128BF41F0004130BD14F5800498
:1003C8003CBF01F5801130BD01F0004545F0FE410C
:1003D80041F470014FF0000030BD7FEA645C1ABF41
:1003E800194610467FEA655C1CBF0B46024650EA78
:1003F800013406BF52EA033591EA030F41F40021A4
:1004080030BD00BF90F0000F04BF0021704730B529
:100418004FF4806404F132044FF000054FF00001FE
:1004280050E700BF90F0000F04BF0021704730B5BF
:100438004FF4806404F1320410F0004548BF404294
:100448004FF000013EE700BF42004FEAE2014FEAE9
:1004580031014FEA02701FBF12F07F4393F07F4FC4
:1004680081F06051704732F07F4208BF704793F0C7
:100478007F4F04BF41F40021704730B54FF46074DA
:1004880001F0004521F000411CE700BF50EA0102DD
:1004980008BF704730B54FF000050AE050EA010286
:1004A80008BF704730B511F0004502D5404261EBF6
:1004B80041014FF4806404F132045FEA915C3FF437
:1004C800D8AE4FF003025FEADC0C18BF03325FEAD4
:1004D800DC0C18BF033202EBDC02C2F1200300FA85
:1004E80003FC20FA02F001FA03FE40EA0E0021FAAA
:1004F80002F11444BDE600BF70B54FF0FF0C4CF498
:10050800E06C1CEA11541DBF1CEA135594EA0C0F49
:1005180095EA0C0F00F0DEF82C4481EA030621EA84
:100528004C5123EA4C5350EA013518BF52EA0335BF
:1005380041F4801143F4801338D0A0FB02CE4FF071
:100548000005E1FB02E506F00042E0FB03E54FF0A1
:100558000006E1FB03569CF0000F18BF4EF0010E99
:10056800A4F1FF04B6F5007F64F5407404D25FEA95
:100578004E0E6D4146EB060642EAC62141EA555148
:100588004FEAC52040EA5E504FEACE2EB4F1FD0C8A
:1005980088BFBCF5E06F1ED8BEF1004F08BF5FEA08
:1005A800500E50F1000041EB045170BD06F00046BA
:1005B80046EA010140EA020081EA0301B4EB5C0467
:1005C800C2BFD4EB0C0541EA045170BD41F480115F
:1005D8004FF0000E013C00F3AB8014F1360FDEBF84
:1005E800002001F0004170BDC4F10004203C35DA60
:1005F8000C341BDC04F11404C4F1200500FA05F3E3
:1006080020FA04F001FA05F240EA020001F0004283
:1006180021F0004110EBD37021FA04F642EB0601F9
:100628005EEA430E08BF20EAD37070BDC4F10C0423
:10063800C4F1200500FA04F320FA05F001FA04F2E7
:1006480040EA020001F0004110EBD37041F10001D3
:100658005EEA430E08BF20EAD37070BDC4F12005DE
:1006680000FA05F24EEA020E20FA04F301FA05F246
:1006780043EA020321FA04F001F0004121FA04F2EE
:1006880020EA020000EBD3705EEA430E08BF20EABE
:10069800D37070BD94F0000F0FD101F000464000F8
:1006A80041EB010111F4801F08BF013CF7D041EA7A
:1006B800060195F0000F18BF704703F0004652007E
:1006C80043EB030313F4801F08BF013DF7D043EA4F
:1006D8000603704794EA0C0F0CEA135518BF95EA05
:1006E8000C0F0CD050EA410618BF52EA4306D1D18C
:1006F80081EA030101F000414FF0000070BD50EAAB
:10070800410606BF1046194652EA430619D094EA34
:100718000C0F02D150EA013613D195EA0C0F05D11E
:1007280052EA03361CBF104619460AD181EA030172
:1007380001F0004141F0FE4141F470014FF000002A
:1007480070BD41F0FE4141F4780170BD70B54FF0C5
:10075800FF0C4CF4E06C1CEA11541DBF1CEA135545
:1007680094EA0C0F95EA0C0F00F0A7F8A4EB050427
:1007780081EA030E52EA03354FEA013100F088801E
:100788004FEA03334FF0805545EA131343EA1263E7
:100798004FEA022245EA111545EA10654FEA00269C
:1007A8000EF000419D4208BF964244F1FD0404F555
:1007B800407402D25B084FEA3202B61A65EB0305B1
:1007C8005B084FEA32024FF480104FF4002CB6EB6E
:1007D800020E75EB030E22BFB61A754640EA0C00EE
:1007E8005B084FEA3202B6EB020E75EB030E22BF2E
:1007F800B61A754640EA5C005B084FEA3202B6EB6F
:10080800020E75EB030E22BFB61A754640EA9C002D
:100818005B084FEA3202B6EB020E75EB030E22BFFD
:10082800B61A754640EADC0055EA060E18D04FEABB
:10083800051545EA16754FEA06164FEAC30343EA5B
:1008480052734FEAC2025FEA1C1CC0D111F4801F28
:100858000BD141EA00014FF000004FF0004CB6E721
:1008680011F4801F04BF01430020B4F1FD0C88BFC0
:10087800BCF5E06F3FF6AFAEB5EB030C04BFB6EBCB
:10088800020C5FEA500C50F1000041EB045170BDBE
:100898000EF0004E4EEA113114EB5C04C2BFD4EBEB
:1008A8000C0541EA045170BD41F480114FF0000E6F
:1008B800013C90E645EA060E8DE60CEA135594EAEB
:1008C8000C0F08BF95EA0C0F3FF43BAF94EA0C0FEE
:1008D8000AD150EA01347FF434AF95EA0C0F7FF463
:1008E80025AF104619462CE795EA0C0F06D152EAB7
:1008F80003353FF4FDAE1046194622E750EA41069B
:1009080018BF52EA43067FF4C5AE50EA41047FF4AB
:100918000DAF52EA43057FF4EBAE12E74FF0FF3C10
:1009280006E000BF4FF0010C02E000BF4FF0010CE1
:100938004DF804CD4FEA410C7FEA6C5C4FEA430C5A
:1009480018BF7FEA6C5C1BD001B050EA410C0CBFA9
:1009580052EA430C91EA030F02BF90EA020F00200B
:10096800704710F1000F91EA030F58BF994208BF72
:1009780090422CBFD8176FEAE37040F0010070472F
:100988004FEA410C7FEA6C5C02D150EA013C07D186
:100998004FEA430C7FEA6C5CD6D152EA033CD3D0D1
:1009A8005DF8040B704700BF8446104662468C46CB
:1009B8001946634600E000BF01B5FFF7B7FF0028FE
:1009C80048BF10F1000F01BD4DF808EDFFF7F4FF27
:1009D8000CBF012000205DF808FB00BF4DF808EDB2
:1009E800FFF7EAFF34BF012000205DF808FB00BFD5
:1009F8004DF808EDFFF7E0FF94BF012000205DF8F7
:100A080008FB00BF4DF808EDFFF7CEFF94BF0120AB
:100A180000205DF808FB00BF4DF808EDFFF7C4FFA4
:100A280034BF012000205DF808FB00BF4FEA4102F7
:100A380012F5001215D211D56FF47873B3EB625228
:100A480012D94FEAC12343F0004343EA505311F04F
:100A5800004F23FA02F018BF404270474FF00000E1
:100A6800704750EA013005D111F0004008BF6FF01F
:100A7800004070474FF00000704700BF4FEA410246
:100A8800B2F1E04324BFB3F5001CDCF1FE5C0DD9E4
:100A980001F0004C4FEAC0024CEA5070B2F1004F2E
:100AA80040EB830008BF20F00100704711F0804F31
:100AB80021D113F13872BCBF01F00040704741F4F6
:100AC80080114FEA5252C2F11802C2F1200C10FAFA
:100AD8000CF320FA02F018BF40F001004FEAC123DE
:100AE8004FEAD32303FA0CFC40EA0C0023FA02F382
:100AF8004FEA4303CCE77FEA625307D150EA013358
:100B08001EBF4FF0FE4040F44000704701F0004027
:100B180040F0FE4040F40000704700BF80F0004005
:100B280002E000BF81F0004142001FBF5FEA4103BD
:100B380092EA030F7FEA226C7FEA236C6AD04FEABD
:100B48001262D2EB1363C1BFD21841404840414002
:100B5800B8BF5B42192B88BF704710F0004F40F4B4
:100B6800000020F07F4018BF404211F0004F41F4D0
:100B7800000121F07F4118BF494292EA030F3FD09C
:100B8800A2F1010241FA03FC10EB0C00C3F12003AF
:100B980001FA03F100F0004302D5494260EB40003E
:100BA800B0F5000F13D3B0F1807F06D340084FEAA9
:100BB800310102F10102FE2A51D2B1F1004F40EB9E
:100BC800C25008BF20F0010040EA03007047490006
:100BD80040EB0000013A28BFB0F5000FEDD2B0FAA3
:100BE80080FCACF1080CB2EB0C0200FA0CF0AABFC6
:100BF80000EBC25052421843BCBFD0401843704764
:100C080092F0000F81F4000106BF80F40000013269
:100C1800013BB5E74FEA41037FEA226C18BF7FEA40
:100C2800236C21D092EA030F04D092F0000F08BF82
:100C38000846704790EA010F1CBF0020704712F069
:100C48007F4F04D1400028BF40F00040704712F1A8
:100C580000723CBF00F50000704700F0004343F00D
:100C6800FE4040F4000070477FEA226216BF084643
:100C78007FEA23630146420206BF5FEA412390EA06
:100C8800010F40F4800070474FF0000304E000BFFC
:100C980010F0004348BF40425FEA000C08BF7047AD
:100CA80043F0964301464FF000001CE050EA010271
:100CB80008BF70474FF000030AE000BF50EA010286
:100CC80008BF704711F0004302D5404261EB410173
:100CD8005FEA010C02BF84460146002043F0B64398
:100CE80008BFA3F18053A3F50003BCFA8CF2083ABD
:100CF800A3EBC25310DB01FA02FC634400FA02FCC6
:100D0800C2F12002BCF1004F20FA02F243EB0200CC
:100D180008BF20F00100704702F1200201FA02FC2E
:100D2800C2F1200250EA4C0021FA02F243EB020021
:100D380008BF20EADC7070477BB972B90029BEBFD2
:100D480000204FF0004106E008BF00281CBF6FF0EC
:100D580000414FF0FF3000F075B8ADF1080C6DE9B7
:100D680004CE002909DB002B1ADB00F09FF8DDF820
:100D780004E0DDE9022304B07047404261EB410121
:100D8800002B1BDB00F092F8DDF804E0DDE902231C
:100D980004B0404261EB4101524263EB43037047A8
:100DA800524263EB430300F081F8DDF804E0DDE92B
:100DB800022304B0404261EB41017047524263EBA9
:100DC800430300F073F8DDF804E0DDE9022304B022
:100DD800524263EB4303704753B94AB9002908BF2D
:100DE80000281CBF4FF0FF314FF0FF3000F02AB849
:100DF800ADF1080C6DE904CE00F058F8DDF804E018
:100E0800DDE9022304B07047D0B50C4B002206463A
:100E18000F46FFF771FB00F017F80446FFF7F2FAE8
:100E2800074B0022FFF768FB02460B46304639465F
:100E3800FFF7AAF900F008F82146D0BD0000F03D00
:100E48000000F041704700BF4A0011D212F50012AD
:100E580011D20DD56FF47873B3EB62520ED44FEA0A
:100E6800C12343F0004343EA505323FA02F070478A
:100E78004FF00000704750EA013002D14FF0FF30C8
:100E880070474FF00000704710F8012B11F8013B34
:100E9800012A28BF9A42F7D0D01A7047034613F8A0
:100EA800012B002AFBD1181A013870472DE9F047A9
:100EB80086468C460846089E154674461946002BF9
:100EC80040F0C2808542B2FA82F245D94AB1C2F1F5
:100ED800200300FA02FC2EFA03F3954043EA0C0CB7
:100EE80094404FEA154EA8B2BCFBFEF8230C0EFB4B
:100EF80018CC08FB00F943EA0C43994528D9EB18AC
:100F080008F1FF3704D2994502D9A8F102072B440A
:100F1800A3EB0903A4B2B3FBFEFC0EFB1C330CFBD2
:100F280000F044EA0344A04214D92C190CF1FF3311
:100F380004D2A04202D9ACF102032C44241A43EA99
:100F480007401EB1D440002334607360BDE8F087C9
:100F58004746DDE76346F1E792BB431B01214FEAB1
:100F6800154EAFB2B3FBFEFC200C0EFB1C330CFB82
:100F780007F840EA0343984562D9EB180CF1FF30B3
:100F880004D2984502D9ACF102002B44A3EB080324
:100F9800A4B2B3FBFEFC0EFB1C330CFB07F744EAC0
:100FA8000344A7424ED92C190CF1FF3304D2A742AF
:100FB80002D9ACF102032C44E41B43EA0040C0E729
:100FC800C2F1200320FA03F1954090402EFA03F372
:100FD80003434FEA154EAFB2B1FBFEFC0EFB1C10EB
:100FE800190C0CFB07F841EA0041884504FA02F4A1
:100FF80022D969180CF1FF3004D2884502D9ACF126
:1010080002002944A1EB08019BB2B1FBFEFC0EFBD8
:101018001C110CFB07F743EA01439F420ED9EB185A
:101028000CF1FF3104D29F4202D9ACF102012B44EA
:10103800DB1B41EA004192E76046E3E76146F7E7D8
:101048006046A3E76346B7E7834206D916B900218D
:1010580008467BE7C6E900E0F9E7B3FA83F78FB9FA
:10106800834201D3724508D8BEEB020460EB030348
:1010780001209C461EB9002168E73846FAE7C6E910
:10108800004CF8E7C7F1200CBB4022FA0CF41C43D3
:101098002EFA0CF120FA0CF3B84001434FEA144938
:1010A8000EFA07F5B3FBF9F81FFA84FE09FB1830AE
:1010B8000B0C08FB0EFA43EA00439A4502FA07F2C2
:1010C80040D9E31808F1FF3004D29A4502D9A8F1B3
:1010D80002002344A3EB0A0389B2B3FBF9F809FB26
:1010E800183308FB0EFE41EA03418E452CD96118DE
:1010F80008F1FF3304D28E4502D9A8F10203214436
:1011080043EA0040A0FB0298A1EB0E014145CE4600
:10111800434602D306D14D4504D2B9EB020E68EB23
:1011280004030138002EA6D0B5EB0E0261EB0301D3
:1011380001FA0CFC22FA07F34CEA0303F940C6E96A
:10114800003198E74046C5E74346D9E7000000006C
:101158002DE9B04F90B000AF78637B6B1B68DA174E
:101168009A46934652465B464FF000004FF0000106
:10117800590141EAD261500102460B46B2EB0A041A
:1011880063EB0B054FF000024FF000036B0243EADC
:10119800D453620214461D4614EB0A0845EB0B09AA
:1011A8004FF000024FF000034FEA891343EA9863B7
:1011B8004FEA8812B2EB0801B96063EB0903FB60E0
:1011C800D7E902120B4613EB0A03BB62134643EB43
:1011D8000B03FB627B6B5B68DA173B627A62D7E9C9
:1011E8000A452346D7E9080102469B183B600B468F
:1011F8002A4642EB03037B60D7E90034C7E90E3483
:10120800D7E90E23012A73F1000312DBD7E90E2375
:1012180015495118B96143F10003FB6110A3D3E9E3
:101228000023D7E90601FFF787FD02460B46134660
:1012380011E0D7E90E230D495118396143F1FF3305
:101248007B6107A3D3E90023D7E90401FFF774FD05
:1012580002460B46134618464037BD46BDE8B08FD8
:101268003AA39500000000009DD14A00632EB5FF07
:101278002DE9B04F9CB000AF78667B6E1B68DA171B
:10128800BB65FA65D7E916234FF000004FF000015F
:10129800590141EAD261500102460B46B96D541A10
:1012A800F96D63EB01054FF000024FF000036B028C
:1012B80043EAD453620214461D46D7E91601034691
:1012C80014EB0308C7E916010B4645EB03094FF079
:1012D80000024FF000034FEA891343EA98634FEA8C
:1012E8008812B2EB0801396363EB09037B63D7E922
:1012F8000C452346D7E9160102469B183B650B4669
:101308002A4642EB03037B657B6E5B68DA17BB6496
:10131800FA64D7E914452346D7E9120102469B1817
:10132800BB620B462A4642EB0303FB62D7E90A3449
:10133800C7E91A34D7E91A23012A73F100033FDBFE
:10134800D7E91A0102460B4694183C625B417B625E
:10135800D7E908231418BC614B41FB614FF0000228
:101368004FF00003D7E9064529460B01214643EA19
:10137800117321460A012146511A3961294663EB46
:1013880001037B614FF000024FF00003D7E90445E9
:1013980029468B00214643EA917321468A002A494F
:1013A8005118396443F100037B6425A3D3E9002372
:1013B800D7E91001FFF7C0FC02460B4613463AE096
:1013C800D7E91A0102460B469418BC605B41FB60E2
:1013D800D7E9022312EB000A43EB010B4FF000029E
:1013E8004FF000034FEA0B1343EA1A734FEA0A124D
:1013F800B2EB0A01396063EB0B037B604FF000022C
:101408004FF00003D7E9004529468B00214643EAFF
:10141800917321468A000D495118B96343F1FF338E
:10142800FB6307A3D3E90023D7E90E01FFF784FC88
:1014380002460B46134618467037BD46BDE8B08FC6
:10144800D8EF2F0000000000ECF717001408E8FFA1
:101458002DE9B04F90B002AF78613961FA60BB6096
:1014680007F118031A463969786925F0A3FB7863F0
:101478007B6B002B01DA7B6B50E0FB6800223B6042
:101488007A60D7E90623796802FB01F0396801FB25
:1014980003F101443868A0FB028901EB090399466E
:1014A80021A3D3E9002340464946FFF795FC0246AD
:1014B8000B46C7E90A23D7E90A23012B02D36FF0A9
:1014C80085032BE0BB6800229A469346D7E906239A
:1014D80002FB0BF00AFB03F10144AAFB02454B197E
:1014E8001D4611A3D3E9002320462946FFF774FCC3
:1014F80002460B46C7E90823D7E90823012B02D384
:101508006FF085030AE0BA6A396AB7F85830009371
:101518000B463969786925F039FB03461846383790
:10152800BD46BDE8B08F00BF00CA9A3B000000006E
:101538002DE9B0439AB008AF7F4B3B644FF49673E4
:10154800A7F846300023BB60386C25F031FC034611
:1015580083F00103DBB2002B1ED00323002B17D02E
:101568000123FB74FB7C83F00103DBB2002B11D158
:10157800724B1968724B0293002301930023009366
:1015880000230122002025F059FD0023FB608BE198
:1015980000BF89E100BF87E16A4A3B6C1360694A72
:1015A800B7F846309380684A3B4692E8030083E8E0
:1015B80003003B461946386C25F002FDF863FB6BC7
:1015C800002B20D00323002B19D00123FB76FB7EB0
:1015D80083F00103DBB2002B13D1584B1968FB6B66
:1015E80003935A4B02930023019300230093002393
:1015F8000122002025F022FD00237B6154E100BF79
:1016080052E100BF50E14F4A5149386C25F06DFC5A
:10161800F863FB6B002B22D00323002B1BD0012384
:1016280087F8233097F8233083F00103DBB2002BCF
:1016380013D1424B1968FB6B0393464B029300236B
:1016480001930023009300230122002025F0F6FCDB
:101658000023FB6128E100BF26E100BF24E14FF031
:1016680000024FF0000307F108013B4814F090FC1A
:10167800F863FB6B002B22D00323002B1BD0012324
:1016880087F82B3097F82B3083F00103DBB2002B5F
:1016980013D12A4B1968FB6B0393304B0293002339
:1016A80001930023009300230122002025F0C6FCAB
:1016B80000237B62F8E000BFF6E000BFF4E0386C7E
:1016C80025F0B0FCBB6840220021184629F0E8FC50
:1016D800B96864234022386C25F092FCF863FB6BF0
:1016E800002B3FD00323002B1BD0012387F8333076
:1016F80097F8333083F00103DBB2002B13D10F4B83
:101708001968FB6B0393164B029300230193002384
:10171800009300230122002025F090FC0023FB62A7
:1017280002E000BF00E000BF07F1080319460A48BD
:1017380027F0CEF9B8E000BFD0B70208600A002051
:1017480078FD020808230020E8FD020890FD020841
:10175800F93F0108B0FD0208600B0020C4FC020834
:1017680030FD0208544B9B881846FEF75BFE024684
:101778000B464FF000005149FEF7E8FF02460B46C2
:1017880010461946FFF752F90346184611F084FF30
:101798004FF000024FF00003CDE906230023049325
:1017A800072303930023029300230193002300934C
:1017B800434B4FF4C0624349434825F018FB434963
:1017C800414825F034FB00224149424829F021FADA
:1017D8004FF000084FF00009374B9B881846FEF77A
:1017E80021FE02460B4632A1D1E90001FEF7AEFF09
:1017F80002460B46104619464FF000024FF0000310
:10180800FFF70AF90346002B22D02B4B9B8818467A
:10181800FEF708FE02460B4625A1D1E90001FEF7B6
:1018280095FF02460B4610461946FFF7EDFA0246A9
:101838000B4612F1630443F100054FF064024FF0C8
:10184800000320462946FFF7C7FA02460B4603E085
:101858004FF000024FF00003CDE9002342464B460B
:101868001C4825F0F2FA0323022B19D9012387F823
:101878003B3097F83B3083F00103DBB2002B11D1EA
:10188800154B1968154B029300230193002300930D
:1018980000230322002025F0D1FB00237B6303E013
:1018A80000BF01E000BFFFE74837BD46BDE8B08391
:1018B8000000000080842E410823002000408F4053
:1018C80061440108705100204823002030FC0208C0
:1018D800DD3F010860240020600A0020CCFD0208DA
:1018E800F8B510EE904A34F000472DED048B10EE59
:1018F800103AB0EE609A0DD183F480035B0013F5C3
:10190800000F40F2098230EE098AB0EE480ABDECB9
:10191800048BF8BD23F00040B0F1FF4F02D8B7F1B7
:10192800FF4F08D9B3F17E5FEDD184F480046400E1
:1019380014F5000FE5E7002B01462DDAB7F1974FB4
:101948000CD3B7F1FF4F2AD00225B4F17C5F41D107
:10195800002BC0F28F80B1EEC08AD6E7B7F17E5F68
:1019680031D3FA15C2F1960247FA02F505FA02F2E6
:10197800BA423DD1B7F17E5F4AD1002C80F2D281C4
:10198800B5EE400AF1EE10FA50D1D80FBDEC048B39
:10199800BDE8F8401AF03CBAB7F1FF4F3DD1B0F1BD
:1019A8007E5F00F0B98108D9DFED977A002CB4BFCB
:1019B800B0EE678AB0EE498AA7E7002C80F2AF81C3
:1019C800B1EE498AA1E7B4F1804F34D0B4F17C5F1D
:1019D8005CD0002523F04042B2F17E5FB0EEC08AB1
:1019E8003FD1002CBCBFB7EE007A87EE088A29E009
:1019F800B7F17E5FC1D00025B4F1804FEAD1B0F1D4
:101A0800BF4F1AD2B0F1D05F29D920EE008A7CE707
:101A180005F00105C5F10205EEE7B7F17E5FACD030
:101A2800B4F1804F4FF00005E9D08EE7B7EE007AA9
:101A380087EE008A69E70025E1E7B0F1FF4FB0EED5
:101A4800C08A35D1002BBFF660AFA0F17E50284385
:101A580016D1BDEC048BBDE8F8401AF0E9B9B0EE38
:101A6800C08A28BB002C1EDA002B8FDA6B1E584266
:101A780058418BE7B0F1FF4FB0EEC08A40F0558176
:101A8800012D7FF442AFB1EE488A3EE7B0F1FF4F37
:101A9800B0EEC08A3FF439AFB0F17E5FD9D00028EC
:101AA8003FF433AFD5E7012D08BFB0EE408A2CE7ED
:101AB800DE0F013E55EA0602CBD0B7F19A4F40F24D
:101AC8004081524B984208D8002C0BDA0020BDEC1C
:101AD800048BBDE8F8401AF08BB94D4B984208D9F1
:101AE800002CF3DC0020BDEC048BBDE8F8401AF0B4
:101AF8006FB9B7EE007A38EE478ADFED467ADFED48
:101B0800469A3FA1D1E9000168EE278AFEF7B6FFA1
:101B180007EE900AB5EE007A48EE477AB6EE007AFC
:101B280007EEC87A68EE087ADFED3C6A27EE277A76
:101B3800F0EE687A47EE667A68EE299A39EEA77A67
:101B480017EE103A23F47F6323F00F0307EE103AE1
:101B580077EE699A77EEE97A013D24F47F6435439C
:101B6800B7EE007A24F00F04BFEE008A18BFB0EE7B
:101B7800478A07EE104A67EE890A39EE477A07EE78
:101B8800903A47EE270A07EE104A67EE877A30EE5A
:101B9800A77A17EE101A002921F000431ADDB3F1D5
:101BA800864F09D9B5EEC08AF1EE10FA4CBF012074
:101BB80000208CE70120E4E036D1DFED196A37EE2A
:101BC800677A70EEA66AF4EEC76AF1EE10FAE9DCFD
:101BD80086232DE0134A934207D9B5EEC08AF1EE69
:101BE80010FA4CBF012000207DE71DD137EE677A3F
:101BF800B4EEE07AF1EE10FAEADBEEE7AFF300803C
:101C0800E13D55555555D53F00000000F3FF7F3F96
:101C18000700803F70A5EC3600AAB83F3BAAB83F42
:101C28003CAA383300001643B3F17C5F6FD9DB154B
:101C38007E3B4FF4000018410844C0F3C753A14A43
:101C48007F3B1A41024007EE102AC0F3160040F409
:101C58000000C3F117031841002977EEC77AB8BF0F
:101C6800404237EEA07ADFED986ADFED985A9FED93
:101C7800986A17EE103A23F47F6323F00F0307EEF8
:101C8800103A77EE677A67EE266A70EEE70ADFEDBC
:101C9800917A67EE277A9FED907A40EE877AB7EED1
:101CA800000A36EEA77A77EE666A77EEE67A67EE8E
:101CB800076A47EE277A16EEA56ADFED885A46EEE0
:101CC800265A9FED876A15EEA66ADFED865A46EE1C
:101CD800265AB0EE476A05EEE66AF0EE006A67EE4D
:101CE800065A36EE666AC5EE866A76EEE77A77EECB
:101CF800C77A30EE670A10EE103A03EBC053B3F51B
:101D0800000F06DA1AF01EF820EE088AFDE500201A
:101D1800A7E700EE103AF7E7B7EE008AF5E59FED82
:101D2800728AF2E5B0EE408AEFE5B0F17E5F3FF4EB
:101D38008CAE00283FF4B7AE002D3FF48AAE0225E2
:101D4800002613F0FF4F01BF9FED687A68EE077A0F
:101D58006FF0170317EE901A4FEAE15218BF0023ED
:101D68007F3A1A44C1F3160361498B4243F07E5708
:101D780006DD60498B427FF71DAF0132A7F50007EA
:101D880000205D4B03EB8003D3ED005A5B4B06EE5E
:101D9800107A75EE867AF7EE006AC6EEA74A36EE36
:101DA800657A27EE245A15EE101A194006EE901A95
:101DB800534901EA670141F0005101F5800101EB47
:101DC800405107EE901A06EEE77A77EEE57ADFEDF6
:101DD8004D5A36EE676A65EE057A06EE667A9FED2D
:101DE8004A6A47EE865A9FED496A05EEA76ADFED13
:101DF800485A46EE275A9FED476A05EEA76ADFED77
:101E0800465A46EE275A27EE247A36EE856A67EE5A
:101E1800A77A26EE076A05EEA76A66EEA64AF0EEEE
:101E2800085A74EEA57A77EE867A17EE901A19405A
:101E380007EE901A77EEE55A27EE277A75EEE45A00
:101E480066EEA76A36EE656A06EE057A9FED336A96
:101E580076EE877A17EE901A194007EE901A77EE09
:101E6800E66A27EE866A37EE667ADFED2D6A2D4937
:101E780067EEA67ADFED2C6A47EE267A01EB800141
:101E880091ED007A77EE877A07EE102A274A02EB5F
:101E98008002D2ED005A76EE276AB8EEC77A76EE5F
:101EA800A56A76EE876A16EE902A134006EE903AF7
:101EB80036EEC77A37EE657A37EE467A77EEC77A26
:101EC8004AE600BF000080FF0072313F4CBB31334F
:101ED8000EEADD358CBEBF351872313F55B38A38EE
:101EE800610B363BABAA2A3E000000000000804B85
:101EF80071C41C00D6B35D00DC14030800F0FFFFBA
:101F080000F0FFDF55326C3E42F1533E05A38B3E95
:101F1800ABAAAA3EB76DDB3E9A99193F0040763FBF
:101F2800C623F6B8CC1403084F38763FD4140308F8
:101F380080B487B000AF786187ED040AC7ED030A63
:101F480087ED021AC7ED011A87ED002A7B693A6905
:101F58001A607B69FA685A607B69BA689A607B691B
:101F68007A68DA607B693A681A617B69054A5A615E
:101F78007B69044A9A6100BF1C37BD465DF8047B43
:101F8800704700BFCDCCCC3D80B584B000AFF860C1
:101F980087ED020AC7ED010AD7ED017A9FED137AA2
:101FA80067EE877AB0EE670A19F084FEB0EE407AE1
:101FB800D7ED027A67EE277AFB68C3ED057AD7ED8D
:101FC800017A9FED0A7A67EE877AB0EE670A19F010
:101FD800FFFCB0EE407AD7ED027A67EE277AFB680D
:101FE800C3ED067A00BF1037BD4680BD35FA8E3C7A
:101FF80080B582B000AF00237B602EE03D4B1B68AC
:102008003D4A1268796807EE901AF8EEE77AB2EE60
:10201800047A37EE877A796807EE901AF8EEE77A4D
:10202800F2EE046A77EEA67AF1EE677AF0EE671AB6
:10203800B0EE471AF1EE040A9FED300A1146184631
:102048001AF04DFE7B6801337B604FF064024FF05D
:102058000003104619461AF080FB7B68632BCDDD20
:10206800244B1B68022118461AF057FC214B1B68A9
:102078009FED230A18461AF020FC1E4B1B689FEDA3
:10208800200A18461AF039FC1A4B1B689FED1C0AE7
:1020980018461AF022FC4FF00A024FF000031046CF
:1020A80019461AF05AFB144B1B68022118461AF0FD
:1020B80034FC114B1B689FED120A18461AF0FDFB01
:1020C8000D4B1B689FED0E0A18461AF016FC0A4BBA
:1020D8001B689FED0B0A18461AF0FFFB4FF00A0227
:1020E8004FF00003104619461AF037FB00BF0837B7
:1020F800BD4680BDBC040020C0040020CDCCCC3D32
:102108000000000080B588B002AFF86087ED020AD1
:10211800C7ED010AD7ED010A97ED020AF868FFF743
:1021280033FF514B0093514B514A5249F8681AF00A
:1021380013FC00237B6128233B6169E04E4B1A683E
:102148004E4B19684B4B93ED007ADFED4D6AC7EEA5
:10215800267A9FED4C7A67EE877A9FED4B7A37EEB9
:10216800C77A4A4BD3ED007A77EE276A3B6907EEC8
:10217800903AF8EEE77A86EEA77A7B69013307EEA4
:10218800903AF8EEE77A27EE277A404BD3ED007ABB
:1021980037EE676A3E4BD3ED007A9FED3E7A37EE15
:1021A800677A314BD3ED006ADFED355AC6EEA57A72
:1021B800DFED346A67EEA67A77EE676A3B6907EE69
:1021C800903AF8EEE77A86EEA77A7B69013307EE54
:1021D800903AF8EEE77A27EE277A2D4BD3ED007A7E
:1021E80077EE277AF0EE671AB0EE461AF2EE040A96
:1021F8009FED290A10461AF072FD7B6901337B6155
:102208004FF064024FF00003104619461AF0A5FA81
:102218007A693B699A4291DB164B93ED007ADFEDC0
:10222800186AC7EE267A9FED177A67EE877A9FEDD0
:10223800167A77EE677A154BC3ED007A0A4B93ED61
:10224800007ADFED0F6AC7EE267A9FED0E7A67EE09
:10225800877A9FED107A77EE677A0D4BC3ED007A97
:1022680000BF1837BD4680BD842900208029002082
:102278007C29002078290020BC040020C00400200C
:10228800DB0F494000003443F6E81C43882900204E
:102298008C290020EC5108430000000080B58EB066
:1022A80004AF3B1D9FED2B2ADFED2B1A9FED2A1A59
:1022B800DFED290A9FED280A1846FFF739FE274B5C
:1022C8001B68002118461AF037FB01201AF019FA8A
:1022D800234B1B68002118461AF02EFB0423022BFF
:1022E80018D9012387F8273097F8273083F001039E
:1022F800DBB2002B0ED11B4B19681B4B029300233A
:102308000193002300930023032200201AF033FADC
:1023180000233B6241F27C524FF0000310461946FD
:102328001AF01BFAFFF764FE4FF064024FF0000347
:10233800104619461AF011FA3B1DFBEE0E0A9FEDE6
:102348000B0A1846FFF7DEFE002318462837BD465D
:1023580080BD00BF0000484300007A43BC04002051
:10236800C0040020B8040020E8BF02080000C843E9
:1023780080B483B000AF78607B68094A934205D384
:102388007B68084A934201D2012300E0002303F04E
:102398000103DBB218460C37BD465DF8047B704775
:1023A80070B40208E419030880B5A4B000AFF8605F
:1023B800B9607A603B60FB68FB65FB6DC7F88C30E1
:1023C8000023C7F880300023FB670023BB674FF06A
:1023D800FF337B67002387F86B307B6803F00403C7
:1023E800002B14BF0123002387F85B307B68DB08D0
:1023F80003F0070301337B66002387F86330FB682B
:102408007B65FB6803F00303002B02D06FF00D031C
:10241800A2E3D7F88C300433C7F88C30FB6D002B5F
:102428000DD1BB6803F00703D7F88C201344C7F815
:102438008C30BB6803F00703C3F10803BB60FB6D76
:10244800002B0AD0FB6DD7F88C20D31A0433BA6856
:102458009A4202D26FF01B037EE33B68FB663B683F
:10246800013B3B600423C7F884300423C7F8883055
:1024780097E197F86B3083F00103DBB2002B11D0A2
:102488003B681B78252B40F07882012387F86B3056
:102498007B6F01337B670423C7F884300423C7F8B4
:1024A80088306AE23B681B787A2B00F349814C2B11
:1024B80011DA472B00F344812A2B71DA252B00F01F
:1024C8009280252B00F33C81202B00F05882232B8F
:1024D80000F0558234E14C3B2E2B00F2318101A2F1
:1024E80052F823F0872900084927000849270008DF
:1024F80049270008492700084927000849270008F4
:1025080049270008492700084927000849270008E3
:1025180049270008272600084927000849270008F6
:1025280049270008492700084927000849270008C3
:102538004927000849270008772600084927000886
:10254800272600082726000877260008772600088F
:10255800772600088729000827260008FD25000897
:10256800492700088729000849270008632600082A
:10257800272600086326000849270008492700087D
:102588005D260008192600082726000849270008A4
:102598004927000827260008492700080B260008B5
:1025A8002A3B012202FA03F34FF6DA721A40002A94
:1025B80014BF01220022D2B2002A40F0E08103F0C9
:1025C8006252002A14BF01220022D2B2002A4ED140
:1025D80003F00103002B14BF01230023DBB2002BFF
:1025E80040F0B280ACE0002387F86B307B6F013B92
:1025F8007B67C5E10823C7F884300823C7F888300B
:10260800BEE10423C7F884300423C7F88830B7E153
:102618000423C7F884300423C7F88830B0E13B6846
:10262800013B1B786C2B11D13B68023B1B786C2B50
:1026380006D10823C7F884300823C7F8883005E096
:102648000423C7F884300423C7F88830002387F8A8
:102658006B307AE0012387F863300423C7F88430AD
:102668000423C7F88830002387F86B306DE03B6897
:10267800013B1B784C2B13D1D7F89830073323F044
:10268800070303F10802C7F89820D3E90023C7E934
:1026980006230823C7F884300823C7F8883012E0D7
:1026A800D7F89830073323F0070303F10802C7F877
:1026B8009820D3E90023C7E906230823C7F8843004
:1026C8000823C7F88830D7F88420D7F88C3013440B
:1026D8005A1ED7F88430B2FBF3F2D7F8843002FBE5
:1026E80003F3C7F88C30FB6D002B1ED0FB6DD7F8B9
:1026F8008C20D21AD7F888301344BA689A4202D28A
:102708006FF01B0328E23B68013B1B784C2B06D17A
:10271800D7F88C10D7E90623C1E9002305E0D7F8DC
:102728008C10D7E90623C1E90023D7F88C20D7F805
:1027380088301344C7F88C30002387F86B301FE1CA
:10274800002387F86B301BE100BFD7F88420D7F847
:102758008C3013445A1ED7F88430B2FBF3F2D7F802
:10276800843002FB03F3C7F88C30FB6D002B0CD0D0
:10277800FB6DD7F88C20D21AD7F888301344BA6882
:102788009A4202D26FF01B03E6E197F86330002B00
:1027980000F0A080D7F898301A1DC7F898201B6859
:1027A800FB66FB6D002B03D0D7F88C30FA6E1A60ED
:1027B8007B6E5A1E7A66002B05DCF86E1AF03FFD18
:1027C8000346002B01D0012300E0002387F8533093
:1027D8007B6803F00203002B14BF0123002387F852
:1027E800523097F85330002B06D097F8523083F0C8
:1027F8000103DBB2002B64D1FB6DD7F88C20D31A10
:102808009B08FB6497F85230002B05D0FB6C7F2B9C
:1028180002D96FF015039FE1D7F880300F2B02D94A
:102828006FF0150398E1FB6D002B2DD0FB6CD9B22E
:1028380007F13002D7F8803013440A461A707B6FCC
:10284800D9B207F12002D7F8803013440A461A702B
:1028580097F85330002B13D007F13002D7F88030A7
:1028680013441B7863F07F03D9B207F13002D7F81D
:10287800803013440A461A70BB6F0133BB671BE0F4
:10288800FB6F0133FB6717E097F85330002B03D039
:10289800BB680133BB600FE097F85B30002B03D0B7
:1028A800BB680233BB6007E0F86EFEF7F7FA024632
:1028B800BB6813440233BB60D7F880300133C7F8D4
:1028C8008030D7F88C300433C7F88C30002387F871
:1028D800633055E0D7F88830042B13D1D7F89830F7
:1028E8001A1DC7F898201B687B64FB6D002B03D06A
:1028F800D7F88C307A6C1A60D7F88C300433C7F864
:102908008C303DE0D7F88830042B13D1D7F89830B5
:102918001A1DC7F898201B68BB64FB6D002B03D0F9
:10292800D7F88C30BA6C1A60D7F88C300433C7F8F3
:102938008C3025E0D7F88830082B1BD1D7F8983091
:10294800073323F0070303F10802C7F89820D3E9F7
:102958000023C7E90423FB6D002B05D0D7F88C10A2
:10296800D7E90423C1E90023D7F88C300833C7F826
:102978008C3005E06FF01503EEE000BF00E000BF0B
:102988003B6801333B603B681B78002B7FF471ADDB
:1029980000BFFB6DD7F88C20D31AB3F5806F02D334
:1029A8006FF01503D8E0FB6D002B07D1FB6DD7F84E
:1029B8008C20D21ABB681344083BCDE0FB6D002283
:1029C8001A60FB6DD7F88C20D31A9B08DAB27B6D9E
:1029D8001A7097F85B30002B07D07B6D00225A7075
:1029E800FB6FDAB27B6DDA7006E0FB6FDAB27B6DF3
:1029F8005A707B6D0022DA70BB6FDAB27B6D9A7009
:102A0800BB6F002B32D000233B672AE007F130026E
:102A18003B6F13441B785BB2002B1EDA07F13002C0
:102A28003B6F13441B7803F07F0387F84330FB6D3B
:102A3800D7F88C20D31A0133BA689A4202D26FF0C1
:102A48001B0389E0D7F88C3097F843201A70D7F821
:102A58008C300133C7F88C3000E000BF3B6F013386
:102A68003B673A6FD7F880309A42CFD300233B6751
:102A780069E0BB6F002B07D007F130023B6F1344AE
:102A88001B785BB2002B5ADB97F85B30002B10D019
:102A98000023C7F88830D7F88C3007F120013A6F47
:102AA8000A4412781A70D7F88C300133C7F88C3082
:102AB8001AE007F130023B6F13441B789B00FA6D54
:102AC80013441B68FB6607F130023B6F13441B7805
:102AD8009B00FA6D134400221A60F86EFEF7DEF9C7
:102AE80003460133C7F88830FB6DD7F88C20D21A1B
:102AF800D7F8883013440133BA689A4202D26FF08B
:102B08001B0329E0D7F88C3007F130013A6F0A44EB
:102B180012781A70D7F88C300133C7F88C30D7F890
:102B28008C30D7F88820F96E184628F0ABFAD7F819
:102B38008C20D7F888301344C7F88C3000E000BFE9
:102B48003B6F01333B673A6FD7F880309A4290D396
:102B5800FB6DD7F88C20D31A18469037BD4680BD38
:102B680080B483B000AF7860044A7B68136000BF0C
:102B78000C37BD465DF8047B704700BFC4040020D5
:102B880080B500AF28F066FC0346024A9B581846F9
:102B980080BD00BF0800000080B584B000AFF860B9
:102BA800B9607A603B601AF0EDFB024628F052FCEF
:102BB800034606495A50FB683A687968B8689847E6
:102BC800FFF7DEFF034618461AF0E3FB0800000093
:102BD80080B400AF054B5B68044A23F002035360DE
:102BE80000BFBD465DF8047B704700BF002004E0CD
:102BF80080B400AF054B1B68044A43F4807313602C
:102C080000BFBD465DF8047B704700BF003C024032
:102C180080B400AF054B1B68044A43F4007313608B
:102C280000BFBD465DF8047B704700BF003C024012
:102C380080B400AF054B1B68044A43F480631360FB
:102C480000BFBD465DF8047B704700BF003C0240F2
:102C580080B500AFFFF7CCFFFFF7DAFFFFF7E8FF1B
:102C6800024B034A1A6000BF80BD00BF640A0020FF
:102C78000024F40080B485B000AF78607B681B0145
:102C8800044A1344FB60FB6818461437BD465DF8D8
:102C9800047B704758BF020880B483B000AF7860E7
:102CA800044A7B6852F8233018460C37BD465DF855
:102CB800047B7047F803030880B582B000AF194B56
:102CC80000221A70184B00221A60184B00221A6052
:102CD8004FF47A71164800F091F8164B7B6015E0B6
:102CE80001233B600020FFF7C5FF02467B689B1A63
:102CF8001B111A463B6813443B603B68DBB219461C
:102D080078681AF0CEFD7B6810337B607B680A4ACE
:102D1800934234BF01230023DBB2002BE0D10837F4
:102D2800BD4680BD603900209829002094290020E4
:102D380021D9010858BF020868BF020880B586B0CB
:102D480000AF03460A46FB711346BB7100237B6143
:102D580027481AF0D2FC0346002B01D0002342E09A
:102D680000233B61234BFB6022E0FB681B7B002BAD
:102D780018D0F8681AF04EFDF8681AF061FD03469D
:102D8800002B08D1FB685B681B6804221946F868A9
:102D98001AF0BAFE06E001223B6902FA03F37A69E7
:102DA80013437B613B6901333B61FB681033FB6074
:102DB800FB68114A934234BF01230023DBB2002B86
:102DC800D3D1FB79002B0DD009E078691AF0ABFD5F
:102DD8007861BB79002B02D00A201AF0BCFC7B6911
:102DE800002BF2D17B6918461837BD4680BD00BF5D
:102DF8009029002058BF020868BF020880B582B039
:102E080000AF786039607B68002B02D16FF0150342
:102E180009E0074A7B681360064A3B681360386814
:102E280000F0DAFC002318460837BD4680BD00BF15
:102E3800C80400209C29002080B582B000AF144B44
:102E48001B78002B20D100210120FFF777FF114BC1
:102E58007B600BE078681AF034FD0346002B02D043
:102E680078681AF011FD7B6810337B607B680A4A2A
:102E7800934234BF01230023DBB2002BEAD100BF09
:102E8800034B01221A7000E000BF0837BD4680BD21
:102E98006039002058BF020868BF020880B584B0B6
:102EA80000AF7860124BFB6013E0F8681AF009FD78
:102EB8000346002B0AD07968F8681AF06FFD0346BC
:102EC800002B03D07968F8681AF0CFFCFB68103340
:102ED800FB60FB68074A934234BF01230023DBB23F
:102EE800002BE2D100BF00BF1037BD4680BD00BF38
:102EF80058BF020868BF020880B400AF034B012224
:102F08001A7000BFBD465DF8047B70476139002028
:102F180080B582B000AF0346FB7106481AF0EDFB9E
:102F2800FB79002B02D004481AF0F4FB00BF0837E5
:102F3800BD4680BD982900209429002080B582B024
:102F480000AF7860064B1B68984702467B689A601A
:102F5800796804481AF037FD00BF0837BD4680BDC0
:102F6800C8040020E00A002080B483B000AF786075
:102F78007B68044A9B1ADB0818460C37BD465DF887
:102F8800047B704768BE020880B500AF0248FFF7AF
:102F9800EBFF0346184680BD58BF020880B485B0D1
:102FA80000AF03463960FB71184BFB601BE0FB6800
:102FB8009B689B68DAB2FB689B681B68DBB21344AA
:102FC800FB72FA79FB7A9A420AD2FB689B689B6883
:102FD800DBB2FA79D31ADAB23B681A70FB680FE0F1
:102FE800FB681833FB60FB68094A934234BF01232E
:102FF8000023DBB2002BDAD13B6800221A700023D1
:1030080018461437BD465DF8047B704768BF020850
:1030180068BF020880B58AB002AF03463960FB7109
:103028001C4BDB693B61FB793B733B689BB2FB81C3
:10303800FB6807F11402194616481AF08FFE03467A
:1030480083F00103DBB2002B1FD007F10B02FB79E1
:1030580011461846FFF7A2FFF861FB7A18463B684D
:103068009AB2796907F1100300930B460146F86993
:103078001AF0F7FCB861BB69002B01DA002305E000
:103088007B69194603481AF0ECFE7B69184620371D
:10309800BD4680BDA029002080B582B000AF786011
:1030A80039607B68DBB218461AF0ABFC0346002B8C
:1030B8000DD078681AF003FD02463B68934204D2AB
:1030C800084A3B6852F8333008E0002306E07B6882
:1030D800DBB239681846FFF79DFF034618460837E4
:1030E800BD4680BD68BE020880B483B000AF78607A
:1030F8007B68044A9B1ADB0818460C37BD465DF806
:10310800047B704768BE020880B590B004AFB96010
:103118007B600346FB731346BB733B6C002B0BD0E1
:103128007B6C3B613B6900933B6CFA6B1021002080
:10313800FFF73AF9F86201E00023FB62FB6AB3F596
:10314800006F1DD30323012B73D90123FB77FB7F6A
:1031580083F00103DBB2002B6BD1374B196840F2C7
:10316800FF730393354B02930023019300230093CD
:103178000023022200201AF086FE0023BB6158E0DB
:10318800FA6ABB6B1344173323F0070303339B0816
:10319800BB623B7D6FF300033B753B7D6FF34103DF
:1031A8003B753B7D6FF382033B75FB7B03F00703A5
:1031B800DAB23B7D62F3C5033B75BB7B03F00703C3
:1031C800DAB2BB8A62F38813BB82FB6AC3F30A03D1
:1031D8009AB27B6962F353237B61BB6BC3F30B0326
:1031E8009AB2FB8A62F30F13FB82BB6A9B00073318
:1031F800DB08DB00ADEB030D04AB0733DB08DB00BA
:103208007B627B6A10333B623B6A002B0BD03B6CC2
:10321800002B08D0F96A7B6C00933B6CFA6B386A18
:10322800FFF7C2F8F8627B687A69B968786A1AF0B9
:103238007BFE3037BD4680BDCC04002020C5020887
:1032480080B584B000AFF860B9607A607B68BA680E
:103258000449F8681AF013F8034618461037BD46B3
:1032680080BD00BFA568000880B483B000AF786057
:103278007B680133044A13441B7818460C37BD4653
:103288005DF8047B704700BFD41803080EB480B5FE
:1032980085B000AF78600023FB6007F12003BB60B6
:1032A800BB68FA697968064803F0F8FAF860FB68C1
:1032B80018461437BD46BDE8804003B0704700BFCC
:1032C80019E1010880B592B004AFF860B9607A607E
:1032D800BB6803F04403002B14BF0123002387F8C5
:1032E800333097F8333083F00103DBB2002B06D07C
:1032F8007A683849F868FFF7C9FF786365E0364BA4
:103308001B68002B5FD0354B1B687A68B2FBF3F360
:103318007B60314B1B687A68B2FBF3F3FB622E4B80
:103328001A687B68B3FBF2F101FB02F29B1ABB62DD
:10333800BB6A4FF47A7203FB02F2274B1B68B2FB9D
:10334800F3F37B62BB6A4FF47A7203FB02F2224BFF
:103358001B68796A01FB03F3D31A4FF47A7203FBF3
:1033680002F21D4B1B68B2FBF3F33B62FB6AFB6185
:10337800FB691B4AA2FB0323DB0ABB61BB694FF451
:10338800616202FB03F3FA69D31AFB61FB69154A10
:10339800A2FB03235B097B617A6913461B019B1A15
:1033A8009B001A46FB699B1AFB613B6A02937B6A86
:1033B8000193FB6900937B69BA690B49F868FFF7C9
:1033C80065FF786301E000237B637B6B1846383721
:1033D800BD4680BD78C50208C0290020C429002048
:1033E800C5B3A2918988888884C5020880B586B04B
:1033F80000AFF8607B600B46FB721346BB72FB7A2A
:10340800002B14D0BB7A002B0AD00B4A7B6852F8E9
:103418002330002B04D0084A7B6852F8233000E0A0
:10342800064B7B617A690649F868FFF72FFF00BFF2
:103438001837BD4680BD00BF1C040308A0C502089C
:10344800A8C5020880B584B000AF78600846114668
:103458001A460346FB700B46BB7013467B7000236D
:10346800FB60FB78002B0CD0194A7B6A52F823309A
:103478001A4618497868FFF709FF0246FB681344A3
:10348800FB60BB69002B08D0BA6913497868FFF75D
:10349800FDFE0246FB681344FB60FB69002B11D05C
:1034A800BB78002B04D07B6A042B01D10B4B00E0C6
:1034B8000B4BFA6919467868FFF7E8FE0246FB6885
:1034C8001344FB60FB6818461037BD4680BD00BF3B
:1034D80008040308ACC50208B4C50208B8C5020848
:1034E800BCC5020880B582B000AF786039603B681F
:1034F80003F01003002B0ED13B6803F02003002BD0
:1035080004D007497868FFF7C1FE05E005497868E7
:10351800FFF7BCFE00E000BF0837BD4680BD00BF16
:10352800C4C50208C8C5020880B588B000AFF860F5
:10353800B9607A603B60B96AF868FFF7D3FF002387
:10354800FB6106E03749F868FFF7A0FEFB69013325
:10355800FB61FA693B689A42F4DB0023BB6120E017
:10356800BB69002B08DDBB6903F00703002B03D1FF
:103578002C49F868FFF78AFEBB697A689A4209D92C
:10358800BB69BA6813441B781A462749F868FFF7DD
:103598007DFE03E02549F868FFF778FEBB69013333
:1035A800BB61BB690F2BDBDD2149F868FFF76EFEB5
:1035B80000237B612DE07B69002B08DD7B6903F02C
:1035C8000703002B03D11749F868FFF75FFE7B69F3
:1035D8007A689A4216D97B69BA6813441B78FB74D7
:1035E800FB7C1846FFF740FE034603F09703002BC9
:1035F80001D0FB7C00E02E231A460E49F868FFF73D
:1036080045FE03E00749F868FFF740FE7B69013390
:103618007B617B690F2BCEDD00BF00BF2037BD4625
:1036280080BD00BFCCC50208D0C50208D8C50208B5
:10363800DCC50208E0C5020890B58DB004AFF8609B
:10364800B9603B601346FB710023FB61BB6803F064
:103658000203002B14BF01230023FB76BB6803F091
:103668000103002B14BF01230023BB76BB6803F0C2
:103678000803002B14BF012300237B760023FB746F
:10368800BB6803F48073002B14BF012300233B762F
:103698001AF0A6F978617B69002B09D07A691E496E
:1036A800F868FFF7F3FD03461A46FB691344FB610C
:1036B800FB7E002B09D03A68B968F868FFF702FE6C
:1036C80003461A46FB691344FB6197F83C20BB7E0E
:1036D8001946F8681AF049FDFC7C3B7E002B01D0A6
:1036E800002300E07B6B97F83C20F879797E039201
:1036F800BA6B029201933B6B009323460246F8682B
:10370800FFF7A0FE03461A46FB691344FB61FB69F9
:1037180018462437BD4690BDECC5020880B58CB06C
:1037280004AFF860B9607A603B6097F82C30002BE2
:103738000CBF01230023FB75FB7D83F00103DBB283
:10374800002B12D097F82C300393BB6A02933B6886
:1037580001937B680093BB680022F96BF868FFF758
:103768006BFFF8611A4BBB6108E00023FB613B6803
:10377800012B01D1164B00E0164BBB613B6B002BB4
:1037880005D03A6BF968B869FFF75AFD3861BB6B29
:10379800002B08D0FA69FB6B00931346BA6B796B60
:1037A800F8681AF004FDFB7D83F00103DBB2002BFF
:1037B80006D097F82C301A46F96BF8681AF01BFDFA
:1037C800F8681AF08CFC00BF2037BD4680BD00BFEA
:1037D80019E1010849E1010880B483B000AF7860BD
:1037E8000C4B01221A6007E07B685B087B60094B81
:1037F8001B685B00074A13607B68074A9342F3D84B
:10380800064A7B68136000BF0C37BD465DF8047B31
:10381800704700BFC429002040420F00C029002083
:1038280080B588B000AFF860B9607A607B68BB612A
:10383800BB695B687B61154B3B6138691AF0D5FD44
:103848000346002B01DAB9681AE00023FB610AE09D
:10385800FA68FB6913441B78194638691AF0B6FDF3
:10386800FB690133FB61FA69BB689A42F0D300BF78
:103878004FF00A024FF0000338691AF0C1FDB96829
:103888000B4618462037BD4680BD00BFB0B70208BA
:1038980080B586B000AF78607B685B681B683B6169
:1038A800064BFB603B695B687B613B691B68396958
:1038B80018461AF04AFD1837BD4680BDB0B7020851
:1038C80080B586B000AF78607B685B681B687B61F9
:1038D8007B695B683B61074BFB603B6901221A7798
:1038E8007B691B6818461AF053FD00BF1837BD46A0
:1038F80080BD00BFB0B7020880B58CB004AFB96016
:103908007A603B600346FB730323FB61F87B3B68EB
:103918007A68B96803F0FCFBB861BB6913F10B0F57
:103928001DD10323012B18D90123FB75FB7D83F0DF
:103938000103DBB2002B10D1104B1968FB7B0393FA
:103948000F4B0293002301930023009300230222CC
:1039580000201AF09DFD00233B611AF093FDBB691E
:1039680013F10B0F04D1FB695A1EFA61002BCDD15C
:10397800BB6918462037BD4680BD00BFD80400206B
:10398800E8CA020880B58EB006AF786039607868FA
:103998001AF0A8FD0346002B05D078681AF0A2FD9E
:1039A8000346043B00E00023FB6122E0FB691B683F
:1039B8003B613B695B68FB60FA683B689A4201D1EE
:1039C800FB6938E0FB69002B11D0FB69043318460A
:1039D8001AF0A0FD0346002B07D0FB6904331846F4
:1039E8001AF098FD0346043B02E0002300E00023A0
:1039F800FB61FB69002BD9D10323032B1AD90123BF
:103A0800FB76FB7E83F00103DBB2002B12D10C4B5B
:103A180019683B6804930B4B03930B4B02930823E1
:103A28000193002300930023042200201AF083FD51
:103A380000237B61002318462037BD4680BD00BFA8
:103A4800DC040020640403082CCF020880B58EB083
:103A580006AF78600B46FB7078681AF043FD0346A2
:103A6800002B05D078681AF03DFD0346043B00E0C2
:103A78000023FB6126E0FB691B683B613B695B68CF
:103A8800FB60FB685B68BB60BB689B78FA789A420E
:103A980001D1FB6938E0FB69002B11D0FB690433C5
:103AA80018461AF037FD0346002B07D0FB6904338C
:103AB80018461AF02FFD0346043B02E0002300E0FD
:103AC8000023FB61FB69002BD5D10323032B1AD9F3
:103AD8000123FB76FB7E83F00103DBB2002B12D1BE
:103AE8000B4B1968FB7804930A4B03930A4B029318
:103AF80008230193002300930023042200201AF0D6
:103B08001AFD00237B61002318462037BD4680BD7F
:103B1800DC0400207C04030854CF020880B590B070
:103B280006AF78600B46FB7078681AF0DBFC03463A
:103B3800002B05D078681AF0D5FC0346043B00E05A
:103B480000233B6239E03B6A1B687B617B695B68E9
:103B58003B613B691B6AFB60002387F827300FE055
:103B680097F82730DB00FA6813441B79FA789A42F1
:103B780001D13B6A43E097F82730013387F82730B3
:103B88003B691B7F97F827209A42E9D33B6A002BB1
:103B980011D03B6A043318461AF0BCFC0346002BCC
:103BA80007D03B6A043318461AF0B4FC0346043BBA
:103BB80002E0002300E000233B623B6A002BC2D1F5
:103BC8000323032B1AD90123FB77FB7F83F001031F
:103BD800DBB2002B12D10C4B1968FB7804930B4B0A
:103BE80003930B4B029308230193002300930023B4
:103BF800042200201AF09FFC0023BB610023184612
:103C08002837BD4680BD00BFDC04002098040308A7
:103C180084CF020880B485B000AF0346FB7100234F
:103C2800FB6020E01549FA681346DB001344DB000B
:103C38000B441B78FA799A4212D11049FA68134654
:103C4800DB001344DB000B4404331B68002B07D054
:103C5800FA681346DB001344DB00084A134406E005
:103C6800FB680133FB60FB68032BDBD90023184694
:103C78001437BD465DF8047B704700BFF829002063
:103C880090B59DB008AF78600023BB647B68343B77
:103C98003B643B6C1B7887F847303B6C5B6813F1DF
:103CA800100F22D00323032B1ED9012387F82B30B2
:103CB80097F82B3083F00103DBB2002B14D1894B2A
:103CC800196897F847300493874B0393874B0293FF
:103CD80008230193002300930023042200201AF0F4
:103CE80063FC00237B62E3E0E2E03B6C5B6C03F087
:103CF8000203002B78D03B6CDB68002B2DD13B6C8A
:103D08005B6C03F00403002B03D03B6C00225A6069
:103D1800CEE00323032B1AD9012387F83B3097F809
:103D28003B3083F00103DBB2002B10D16D4B1968D7
:103D38006D4B03936E4B029308230193002300936A
:103D48000023042200201AF02FFC00237B633B6C25
:103D58005B6C43F004023B6C5A643B6C99683B6CA7
:103D6800DA6807F10C0397F84700FFF7C5FDB86458
:103D7800BB6C002B25D00323002B1DD0012387F813
:103D8800333097F8333083F00103DBB2002B13D1C3
:103D9800544B196897F847300493BB6C0393554B01
:103DA80002930023019300230093002301220020A3
:103DB8001AF0FAFB0023FB623B6C6FF015025A60A5
:103DC80076E03B6C9A68FB681A443B6C9A603B6CE3
:103DD800DA68FB68D21A3B6CDA603B6C1A69FB68DC
:103DE8001A443B6C1A6163E03B6C99683B6CDA6877
:103DF80007F10C0397F8470003F094FAB864BB6C1A
:103E0800002B25D00323002B1DD0012387F84F302A
:103E180097F84F3083F00103DBB2002B13D1314BFD
:103E2800196897F847300493BB6C0393314B02939E
:103E380000230193002300930023012200201AF09D
:103E4800B3FB0023FB633B6C6FF015025A602FE055
:103E58003B6C9A68FB681A443B6C9A603B6CDA6866
:103E6800FB68D21A3B6CDA603B6C1A69FB681A442F
:103E78003B6C1A61FB68002B11D0FC6897F847303F
:103E880018461BF0B5F80346B4FBF3F202FB03F344
:103E9800E31A002B03D13B6CDB68002B03D13B6C8E
:103EA80000225A6004E097F84730184603F018FBE0
:103EB8003B6C5B6813F1100F57D03B6C5B693B623E
:103EC8003B6C1B69FB613B6C9B69BB6125F0E1FEA8
:103ED8000346002B12D03B6C34331946064825F0B4
:103EE80091FD42E0E0040020B0040308B8CF0208C6
:103EF800E8CF0208FCCF0208C80C00200323032BDC
:103F080022D90123FB75FB7D83F00103DBB2002B73
:103F18001AD1174B19683B6C1B7818463B6C5B68C9
:103F28003A6C1269069205930490124B0393124B54
:103F38000293082301930023009300230422002006
:103F48001AF032FB00233B613B6C00225A613B6C48
:103F58001C3318461AF01DFB3B6A002B05D097F856
:103F680047003B6ABA69F96998475437BD4690BD1E
:103F7800E0040020B00403081CD0020880B58CB00F
:103F880004AF03460A46FB711346BB71FB7918461A
:103F9800FFF740FEF861BB79022B02D0BB79012BF9
:103FA80044D1FB69002B29D1BB79012B40D107F102
:103FB800100307F10F01F879012203F0B3F93B6907
:103FC800002BF4D10323002B17D00123FB76FB7EB3
:103FD80083F00103DBB2002B0FD1174B1968174B85
:103FE8000293002301930023009300230122002061
:103FF8001AF0DAFA00237B611AE019E025F049FE8D
:10400800034683F00103DBB2002B02D1BB79012BFD
:1040180005D1FB6934331846FFF732FE09E0FB6926
:1040280034331946064825F0EDFC02E000BF00E0F5
:1040380000BF2037BD4680BDE004002050D00208F4
:10404800C80C002080B59CB008AFB9607A603B60AE
:104058000346FB7300237B640023FB64FB7B184649
:104068001AF0C0FA0346002B02D06FF00F03F9E0F4
:104078000323032B20D9012387F8433097F84330D3
:1040880083F00103DBB2002B16D1784B1968FB7B58
:104098007A680692BA6805920493754B0393754B38
:1040A8000293082301930023009300230422002095
:1040B8001AF07AFA0023FB63EFF311837B627B6AC1
:1040C8003B621023FB61FB6983F3128800BFBFF3D7
:1040D8006F8F00BF3B6ABB630023BB641EE0BA6CF2
:1040E8001346DB001344DB001833634A1344191DDD
:1040F8004FF000024FF0000308461AF03AFA034660
:10410800002B08D1BA6C1346DB001344DB005A4A73
:1041180013447B6405E0BB6C0133BB64BB6C032BAD
:10412800DDD97B6C002B1FD10323002B18D0012372
:1041380087F82F3097F82F3083F00103DBB2002B7C
:104148000ED14A4B19684D4B02930023019300236B
:1041580000930023012200201AF026FA0023BB62F4
:104168006FF00B03FB6470E07B6C5B6813F1100F5E
:1041780026D10323002B1AD0012387F8373097F86C
:10418800373083F00103DBB2002B10D1374B1968AD
:10419800FB7B03933A4B0293002301930023009384
:1041A8000023012200201AF0FFF900233B637B6CF7
:1041B8001C3318461AF0EDF96FF00F03FB6444E066
:1041C8007B6CFA7B1A707B6CBA689A607B6C7A6835
:1041D800DA607B6C00221A617B6CBA6D5A617B6C69
:1041E8003A685A647B6CFA6D9A617B6C6FF00F02C7
:1041F8005A60FB7B18461AF0FBFE0346002B13D0CF
:10420800FB7B18461AF0F4FE03461A467B68B3FB9C
:10421800F2F101FB02F29B1A002B05D07B6C5B6C60
:1042280043F004027B6C5A643B6803F00203002BE2
:1042380006D07B6C34331946124825F0E3FB04E0C2
:10424800FB7B184603F04CF9F864BB6BBB61BB6998
:104258007B617B6983F3118800BFBFF36F8F00BF59
:1042680000BFFB6C18465037BD4680BDE0040020F7
:10427800C40403086CD00208F8290020A0D0020862
:10428800BCD00208C80C002090B59BB008AFF860FD
:10429800B9607A60FB689B88DBB219468548FFF7EE
:1042A800D5FB78617B69002B21D10323012B1BD916
:1042B800012387F83B3097F83B3083F00103DBB2EA
:1042C800002B11D17C4B1968FB689B8803937B4BAF
:1042D800029300230193002300930023022200206D
:1042E8001AF0B3FA00237B646FF01203DDE07B69F8
:1042F800A43B3B61F8681AF094FA0346002B6FD090
:10430800FB685B78202B02D0222B41D0A6E03B69CA
:10431800D3F89430BB623B6903F194007B681B6857
:104328000722194626F0AEFE3B69D3F894307B632A
:104338000323032B2AD9012387F8333097F8333026
:1043480083F00103DBB2002B20D15B4B19683B697A
:1043580093F898301A463B6993F8993018463B69A8
:1043680093F89A300793069005927B6B0493544B0D
:104378000393544B029308230193002300930023D3
:10438800042200201AF061FA0023FB6200238CE06B
:10439800FB685B88DAB23B6983F89B200323032B15
:1043A8001CD90123FB77FB7F83F00103DBB2002BD1
:1043B80014D1414B19683B6993F89B300493404BE7
:1043C8000393414B02930823019300230093002396
:1043D800042200201AF039FA0023BB61002364E0AC
:1043E800FB685B78212B39D13B6903F194027B6828
:1043F8001A60BB6807221A600323032B2CD90123F8
:1044080087F8273097F8273083F00103DBB2002BB9
:1044180022D1294B19683B69D3F894303A6992F84C
:10442800982010463A6992F8992014463A6992F809
:104438009A200792069405900493214B0393234BEB
:1044480002930823019300230093002304220020F1
:104458001AF0FBF900233B62002326E00323032B19
:1044680021D9012387F8433097F8433083F00103BB
:10447800DBB2002B17D1104B1968FB681B781A4662
:10448800FB685B78059304920D4B0393104B0293E2
:1044980008230193002300930023042200201AF02C
:1044A800D4F90023FB636FF0850318464C37BD46EB
:1044B80090BD00BF182B0020E404002018D102088A
:1044C800D404030840D1020864D1020888D1020844
:1044D800ACD1020880B592B008AF0346B9607A60E3
:1044E800FB737B687B620323032B20D9012387F8A6
:1044F800233097F8233083F00103DBB2002B16D169
:10450800334B1968FB7B7A6A0692BA680592049362
:10451800304B0393304B02930823019300230093FD
:104528000023042200201AF090F90023FB617B6A23
:10453800012283F848207B6A1B68002B0AD07B6A1B
:1045480093F84A30002B05D07B6A08331946234874
:1045580025F058FA7B6AD3F8903018461AF0B8F864
:104568000346002B1FD0BB68002B1CD00323032B52
:104578002BD90123FB76FB7E83F00103DBB2002BF2
:1045880023D1134B1968134B0393154B029308233C
:104598000193002300930023042200201AF055F908
:1045A80000237B6111E07B6A03F11801BB68002BD3
:1045B80004D04FF000024FF0000303E04FF47A728A
:1045C8004FF00003054812F09FFF2837BD4680BD15
:1045D800E4040020F0040308ECD10208C80C002011
:1045E80014D2020880B594B006AF786078681AF0E3
:1045F800FFF838633B6B183BFB62FB6AD3F8A430C7
:10460800BB62BB6A5B687B627B6A1B6A10331B797F
:1046180087F8233097F82330184619F0E3FF03464C
:10462800002B1DD00323032B19D90123FB74FB7C1A
:1046380083F00103DBB2002B11D1464B1968464BBE
:104648000393464B0293082301930023009300230E
:10465800042200201AF0F9F80023FB6077E076E0E6
:10466800FB6A93F89E3083F00103DBB2002B6DD117
:10467800FB6AD3F8903007F108014FF480621846BE
:104688001AF05EF878637B6B002B1DD10323032B94
:1046980019D90123FB76FB7E83F00103DBB2002BE3
:1046A80011D12C4B19682C4B03932D4B02930823E3
:1046B8000193002300930023042200201AF0C5F878
:1046C80000237B6143E042E0FB6A002283F8482034
:1046D8007B6B03F03F03002B02D17B6B013B7B63B9
:1046E8000323032B1FD9012387F8223097F82230A0
:1046F80083F00103DBB2002B15D1164B196897F82C
:10470800233005937B6B0493134B0393154B029350
:1047180008230193002300930023042200201AF0A9
:1047280094F80023FB61B96897F82300FB6A0193AA
:104738000D4B009302237A6BFFF784FCFB6AD3F8D6
:104748009030796B18461AF016F800E000BF383739
:10475800BD4680BDE4040020040503082CD20208ED
:1047680044D2020858D20208DD440008B0B592B01D
:1047780008AF0346B9607A60FB737B683B6203232A
:10478800032B27D90123FB77FB7F83F00103DBB2DF
:10479800002B1FD1434B1D68FC7B3B6AD3F88C3040
:1047A800184619F0A8FF034607933B6A0693BB68AF
:1047B800059304943C4B03933C4B029308230193C9
:1047C8000023009300230422294600201AF03DF814
:1047D80000237B62BB68002B4CDD3B6AD3F88C005E
:1047E8003B6A4C33BA68194618F0DCFEB861BB68FE
:1047F800BA699A421DD20323002B1AD00123FB75F4
:10480800FB7D83F00103DBB2002B12D1254B196825
:10481800BA68BB69D31A0393254B0293002301930B
:10482800002300930023012200201AF00EF8002331
:104838003B613B6A012283F849203B6A1B68002BD5
:104848000AD03B6A93F84B30002B05D03B6A0833FB
:104858001946184825F0D6F83B6AD3F88C30184624
:1048680019F049FF03463F2B06D83B6A012283F81B
:10487800A02013E000BF00E000BF3B6A93F89E3021
:10488800002B0BD03B6A03F14C01F87B3B6A019388
:10489800094B009301234022FFF7D4FB2837BD467C
:1048A800B0BD00BFE40400201405030888D2020844
:1048B800BCD20208C80C00207547000880B58EB02D
:1048C80006AF03460A46FB711346BB71FB791946CE
:1048D8002648FFF723F9F861FB69002B1DD1032354
:1048E800012B19D90123FB73FB7B83F00103DBB296
:1048F800002B11D11E4B1968FB7903931D4B0293B2
:10490800002301930023009300230222002019F0C2
:104918009CFF0023BB6025E024E0FB69A43BBB614E
:10492800BB69012283F89D200323032B1AD9012395
:10493800FB75FB7D83F00103DBB2002B12D10C4B1E
:104948001968FB7904930C4B03930C4B02930823CF
:1049580001930023009300230422002019F075FF1F
:1049680000233B612037BD4680BD00BF182B0020C7
:10497800E4040020E0D202082405030808D3020852
:1049880080B584B000AF78607B68002283F89E20F1
:104998007B68002283F89F207B68002283F84920E7
:1049A8007B68002283F848207B68104A943392E899
:1049B800030018600433198002330A0C1A707B68EC
:1049C800002283F89C207B68002283F89B207B6868
:1049D800002283F8A0207B684C334022002118462F
:1049E80026F05EFB00BF1037BD4680BD20D302080D
:1049F80080B59EB004AFF8600B467A60FB72FB6826
:104A0800D3F8A430FB65FB6D5B68BB65FB7A0A2BAA
:104A180000F27E8101A252F823F000BF514A00083B
:104A28008D4A0008D14A0008114B0008A34B000822
:104A3800E34B0008254C0008554D0008194D0008A7
:104A4800194D0008554D00080323032B19D90123DC
:104A5800FB77FB7F83F00103DBB2002B11D1A04B66
:104A68001968A04B0393A04B0293082301930023DA
:104A7800009300230422002019F0E7FE0023BB6105
:104A880067E166E10323032B1AD9012387F827304E
:104A980097F8273083F00103DBB2002B10D1904B3D
:104AA8001968904B0393914B0293082301930023B9
:104AB800009300230422002019F0C7FE00233B6264
:104AC800F868FFF75DFF44E10323032B1BD901239B
:104AD80087F82F3097F82F3083F00103DBB2002BD3
:104AE80011D17F4B19687F4B0393814B02930823A5
:104AF80001930023009300230422002019F0A5FE4F
:104B08000023BB6225E124E10323022B18D90123EA
:104B180087F8373097F8373083F00103DBB2002B82
:104B28000ED16F4B1968734B029300230193002336
:104B3800009300230322002019F087FE00233B6323
:104B4800FB6893F89E3083F00103DBB2002B00F082
:104B5800FF80FB68012283F89E20BB6D1B6A083327
:104B68001B79FA6800211846FFF700FEFB6893F8E6
:104B7800483083F00103DBB2002B00F0E980BB6D05
:104B88001B6A10331879FB6801935B4B009302236F
:104B980000220021FFF756FADAE00323022B18D986
:104BA800012387F83F3097F83F3083F00103DBB2E9
:104BB800002B0ED14A4B1968504B029300230193E6
:104BC8000023009300230322002019F03EFE002357
:104BD800BB63F868FFF7D4FEBBE00323022B18D9A8
:104BE800012387F8473097F8473083F00103DBB299
:104BF800002B0ED13A4B1968414B029300230193C5
:104C08000023009300230322002019F01EFE002336
:104C18003B64FB68012283F89F209AE00323022B60
:104C280018D9012387F8633097F8633083F00103BC
:104C3800DBB2002B0ED12A4B1968324B02930023AA
:104C480001930023009300230322002019F0FDFDA7
:104C580000237B66FB6893F89F30002B20D003234A
:104C6800022B18D9012387F84F3097F84F3083F07B
:104C78000103DBB2002B0ED1194B1968224B0293AA
:104C8800002301930023009300230322002019F03E
:104C9800DCFD0023BB64FB68002283F89F2058E0FA
:104CA8000323032B1BD9012387F8573097F8573074
:104CB80083F00103DBB2002B11D1094B1968094BB2
:104CC8000393124B029308230193002300930023BC
:104CD8000422002019F0B9FD00233B6539E038E0D3
:104CE800E40400203405030828D302083CD3020852
:104CF80058D3020870D30208DD44000884D30208A0
:104D080098D30208ACD30208BCD30208CCD302085B
:104D18000323032B19D90123FB75FB7D83F00103C2
:104D2800DBB2002B11D10D4B19680D4B03930D4BC2
:104D380002930823019300230093002304220020F8
:104D480019F083FD00233B6103E002E000BF00E0AF
:104D580000BF00BF6837BD4680BD00BFE404002027
:104D680034050308E8D3020880B590B006AFF860B0
:104D78000B467A60FB720323032B1ED9012387F8A5
:104D8800273097F8273083F00103DBB2002B14D1CA
:104D9800234B1968FB7A0593FB680493214B039313
:104DA800214B02930823019300230093002304223C
:104DB800002019F04AFD00233B62F9681B48FEF702
:104DC800E1FDF861FB69002B1DD10323012B19D9E3
:104DD8000123FB75FB7D83F00103DBB2002B11D1AE
:104DE8000F4B1968FB680393114B0293002301933F
:104DF8000023009300230222002019F026FD00233F
:104E08003B6109E008E0FB69A43BBB61FB7A7A6877
:104E18001946B869FFF7ECFD2837BD4680BD00BFCD
:104E2800E404002044050308FCD30208182B0020E2
:104E380014D4020880B58EB008AF78607B681B690F
:104E48007B6100233B617B697A68C3F8A4207B6996
:104E5800A83319461C4819F014FC0323032B21D945
:104E68000123FB73FB7B83F00103DBB2002B19D119
:104E7800164B19687B685B68134A079206937B692F
:104E880005937B680493124B0393124B02930823F8
:104E980001930023009300230422002019F0D5FC7D
:104EA8000023BB607B6908330B49184624F0F8FCE3
:104EB8007B6918330949184624F0FDFD3B691846FB
:104EC8001837BD4680BD00BF182B0020E404002021
:104ED8005C05030838D40208DDE80108ED45000840
:104EE80090B599B008AFF860B9607A60FB681B6943
:104EF800FB630323032B27D9012387F83B3097F85B
:104F08003B3083F00103DBB2002B1DD13B4B1C6807
:104F1800FB6BD3F89030184619F0EDFB0346069367
:104F28007B680593FB6B0493354B0393354B0293D6
:104F38000823019300230093002304222146002024
:104F480019F083FC00237B63EFF31183BB61BB691A
:104F58007B6110233B613B6983F3128800BFBFF379
:104F68006F8F00BF7B693B63FB6BD3F890307A6827
:104F7800B968184618F016FBF8623B6B3B623B6A4F
:104F8800FB61FB6983F3118800BFBFF36F8F00BF1C
:104F980000BF0323032B1ED9012387F82B3097F872
:104FA8002B3083F00103DBB2002B14D1134B1968AB
:104FB8007B680593FB6A0493114B0393124B02938E
:104FC800082301930023009300230422002019F0F2
:104FD8003CFC00237B62FB6A002B09D0FB6B03F1CE
:104FE80018014FF000024FF00003084812F08CFA45
:104FF800FB6A18464437BD4690BD00BFE404002054
:105008006C05030874D40208A0D40208C80C002058
:1050180090B593B008AFF860B9607A60FB681B6917
:105028007B620323032B27D9012387F8233097F8C2
:10503800233083F00103DBB2002B1DD1274B1C6802
:105048007B6AD3F88C30184619F055FB0346069353
:105058007B680593FB680493214B0393214B0293D0
:1050680008230193002300930023042221460020F3
:1050780019F0EBFB0023FB617B6AD3F88C307A686C
:10508800B968184618F0C2FAB8617B6A93F8A0307C
:10509800002B1DD07B6AD3F88C30184619F02BFBF7
:1050A80003463F2B14D9FB685B687B617B6A93F8E6
:1050B8009E30002B08D07B691B6A08331B797A6AFB
:1050C80000211846FFF752FB7B6A002283F8A020D4
:1050D800BB6918462C37BD4690BD00BFE4040020CC
:1050E80080050308CCD4020880B584B000AF78608E
:1050F8007B681B69FB60FB68012283F84A20FB6818
:105108001B68002B0AD0FB6893F84830002B05D0A9
:10511800FB6808331946034824F074FC00BF1037B5
:10512800BD4680BDC80C002080B584B000AF786053
:105138007B681B69FB60FB68012283F84B20FB68D6
:105148001B68002B0AD0FB6893F84930002B05D068
:10515800FB6808331946034824F054FC00BF103795
:10516800BD4680BDC80C002080B485B000AF786013
:1051780039607B681B69FB60FB68D3F894203B6847
:105188001A60FB6893F89830002B02D0012B04D0EA
:1051980007E03B6801225A7107E03B6802225A7116
:1051A80003E03B6803225A7100BFFB6893F899300B
:1051B800013B032B0AD801A252F823F0DD51000865
:1051C800E5510008ED510008F55100083B68002240
:1051D8001A710FE03B6801221A710BE03B6802224A
:1051E8001A7107E03B6803221A7103E03B68042246
:1051F8001A7100BFFB6893F89A30072B0ED0072B63
:1052080010DC052B02D0062B04D00BE03B680022F3
:105218009A710BE03B6801229A7107E03B68022211
:105228009A7103E03B6803229A7100BFFB6893F808
:10523800A1301A463B68DA71002318461437BD4678
:105248005DF8047B704700BF80B590B004AF78600C
:105258000B46FB707B681B69FB62FB6A002283F8C4
:105268004820EFF311833B613B69FB601023BB606F
:10527800BB6883F3128800BFBFF36F8F00BFFB6862
:10528800BB62FB6AD3F89030F91C0122184618F06B
:1052980089F97862BB6ABB61BB697B617B6983F30F
:1052A800118800BFBFF36F8F00BF00BF7B6A012B5F
:1052B80039D024F0EEFC0346002B07D1FB6A93F8A3
:1052C800A13083F00103DBB2002B28D01E4B1B78E2
:1052D800002B0CBF01230023DBB2002B25D00323B6
:1052E800012B18D9012387F8233097F8233083F04E
:1052F8000103DBB2002B0ED1144B1968144B029337
:10530800002301930023009300230222002019F0B8
:105318009CFA0023FB610C4B01221A7005E0012066
:1053280019F03AFA9DE700BF00E000BFFB6A03F1FD
:1053380018014FF00A024FF00003064812F0E4F893
:1053480000BF3037BD4680BD62390020E40400202C
:10535800F4D40208C80C002080B582B002AF002344
:1053680000934FF0FF334FF480620649064811F06E
:10537800DFFF0649044819F0A6FB00231846BD467E
:1053880080BD00BF70390020C80C002024D5020859
:10539800F0B59DB00CAF78600323002B20D001231B
:1053A800FB77FB7F83F00103DBB2002B18D1764B30
:1053B80018687B681B687A685268796889680591FB
:1053C80004920393714B02930023019300230093EB
:1053D800002301220146002019F083FB0023BB6152
:1053E8000323002B20D00123FB75FB7D83F00103F1
:1053F800DBB2002B18D1644B18687B68DB687A68CD
:10540800126979684969059104920393604B029384
:10541800002301930023009300230122014600206A
:1054280019F05FFB00233B610323002B19D00123F4
:10543800FB73FB7B83F00103DBB2002B11D1524BD2
:1054480019687B68DB690393524B0293002301932D
:105458000023009300230122002019F042FB0023BF
:10546800FB630023BB6348E00323002B42D00123E6
:1054780087F8273097F8273083F00103DBB2002B39
:1054880038D1414B1B683B607B68BA6B083253F8D4
:105498002230BA6B0132B96B481C7968083051F870
:1054A8002010B86B0230BC6BA51C7C68083554F81A
:1054B8002540BD6B0335BE6B06F1030C7E680CF10D
:1054C800080C56F82C600A960995089407900691DE
:1054D80005920493BB6B03932F4B02930023019314
:1054E80000230093002301223968002019F0F9FAFB
:1054F80000233B62BB6B0433BB63BB6B0F2BB3D97D
:105508000323002B1BD0012387F8373097F8373057
:1055180083F00103DBB2002B11D11B4B19687B68A8
:105528001B6E03931D4B02930023019300230093EA
:1055380000230122002019F0D4FA00233B6303233F
:10554800002B1CD0012387F82F3097F82F3083F0D9
:105558000103DBB2002B12D10B4B19687B689B69E6
:1055680003930F4B0293002301930023009300231E
:105578000122002019F0B5FA0023BB6200BF00BF6A
:105588004437BD46F0BD00BF280500208CD6020870
:10559800BCD60208ECD60208FCD6020840D702089E
:1055A80050D7020880B58AB004AF786039603B688C
:1055B800002B02D03868FFF7EBFE7B68012B21D166
:1055C800EFF30583BB60BB68103B7B610323002BB3
:1055D80018D00123FB74FB7C83F00103DBB2002BA2
:1055E80010D10C4B19687B6903930B4B0293002372
:1055F80001930023009300230122002019F071FA7F
:105608000023FB603968786810F084F900BF183708
:10561800BD4680BD2805002080D7020880B500AFB0
:10562800034B1B68984700F035F800BF80BD00BFEA
:105638002C05002030BFFFF7FDBF00BF80B400AFCE
:10564800034A044B13441846BD465DF8047B704773
:10565800000000000400000080B582B000AF786050
:10566800094B1A460949786825F00CFD064A7B68FB
:1056780013447B60064B1A460021786825F010FD1C
:1056880000BF0837BD4680BD00000000A9BF020862
:105698000400000080B400AF084B1A6A074B9B68EF
:1056A8009A4205D0064B5B68054A43F08053536025
:1056B80000BFBD465DF8047B704700BF98240020FA
:1056C80000ED00E080B59AB004AFF860B9607A6088
:1056D80010237B656FF015033B650323002B18D05F
:1056E800012387F84F3097F84F3083F00103DBB27E
:1056F800002B0ED18C4B19688C4B0293002301931D
:105708000023009300230122002019F03CFA002313
:10571800BB64874B9B6A03F01003002B1DD0112339
:105728007B650323002B18D0012387F8473097F8AF
:10573800473083F00103DBB2002B0ED17A4B196896
:105748007C4B029300230193002300930023012242
:10575800002019F018FA00233B64754B9B6A03F08C
:105768000803002B1DD012237B650323002B18D0C0
:10577800012387F83F3097F83F3083F00103DBB20D
:10578800002B0ED1684B19686B4B029300230193D1
:105798000023009300230122002019F0F4F90023CC
:1057A800BB63634B9B6A03F00203002B4FD01323A8
:1057B8007B650323002B18D0012387F8373097F82F
:1057C800373083F00103DBB2002B0ED1564B19683A
:1057D8005A4B0293002301930023009300230122D4
:1057E800002019F0D0F900233B63514B5B6BFB623F
:1057F8004F4B9B6A03F08003002B28D0FB6A3B6564
:105808000323002B1AD0012387F82B3097F82B306D
:1058180083F00103DBB2002B10D1434B19683B6DB9
:105828000393474B02930023019300230093002323
:105838000122002019F0A7F900237B62BB68002B26
:1058480005D03B4B9B6A3A4A23F080039362384B5E
:105858009B6A03F00103002B1DD014237B650323EF
:10586800002B18D0012387F8233097F8233083F0D2
:105878000103DBB2002B0ED12B4B1968314B02937D
:10588800002301930023009300230122002019F034
:105898007AF90023FB61264B9B6A03F02003002B57
:1058A8001BD015237B650323002B16D00123FB7621
:1058B800FB7E83F00103DBB2002B0ED11A4B196873
:1058C800214B02930023019300230093002301221C
:1058D800002019F058F900237B61154B9B6A03F0EF
:1058E8001003002B01D1124B9B6A114B9B6A03F0EA
:1058F8002003002B05D00E4B5B6A0D4A23F400539E
:1059080053620B4B9B6A0A4A43F0FF0393620121DF
:10591800F86819F061F903461A467B681A707B6DBE
:1059280018465837BD4680BD3005002094D7020878
:1059380000ED00E0ACD70208E0D70208F4D702086F
:105948000CD8020824D8020844D8020880B59AB0B6
:1059580004AFF860B9607A6016237B650323002BD7
:1059680018D0012387F8533097F8533083F0010398
:10597800DBB2002B0ED1934B1968934B0293002393
:1059880001930023009300230122002019F0FBF863
:105998000023FB648D4B9B6A03F48053002B1DD0BE
:1059A80017237B650323002B18D0012387F84B307E
:1059B80097F84B3083F00103DBB2002B0ED1814BFB
:1059C8001968834B0293002301930023009300235B
:1059D8000122002019F0D7F800237B647B4B9B6AD7
:1059E80003F40063002B1DD018237B650323002BD1
:1059F80018D0012387F8433097F8433083F0010328
:105A0800DBB2002B0ED16F4B1968724B0293002347
:105A180001930023009300230122002019F0B3F81A
:105A28000023FB63694B9B6A03F40073002B4DD082
:105A380019237B650323002B18D0012387F83B30FB
:105A480097F83B3083F00103DBB2002B0ED15D4B9E
:105A58001968614B029300230193002300930023EC
:105A68000122002019F08FF800237B63574B9B6BB2
:105A78003B63564B9B6A03F40043002B26D0032359
:105A8800002B1AD0012387F82F3097F82F3083F096
:105A98000103DBB2002B10D14A4B19683B6B03930F
:105AA8004E4B02930023019300230093002301220D
:105AB800002019F068F80023BB62BB68002B05D0F2
:105AC800424B9B6A414A23F4004393623F4B9B6AD3
