:020000040800F2
:10000000E8400020FD2E000871210008E92E0008BC
:10001000E92E0008E92E0008E92E00080000000083
:100020000000000000000000000000001D3000087B
:10003000E92E000800000000892F000815D00008F4
:100040003D3300083D3300083D3300083D330008D0
:100050003D3300083D3300083D3300083D330008C0
:100060003D3300083D3300083D3300083D330008B0
:100070003D3300083D3300083D3300083D330008A0
:100080003D3300083D3300083D3300083D33000890
:100090003D3300083D3300083D3300083D33000880
:1000A0003D3300083D3300083D3300083D33000870
:1000B0003D3300083D3300083D3300083D33000860
:1000C0003D3300083D3300083D3300083D33000850
:1000D0003D3300083D3300083D3300083D33000840
:1000E0003D3300083D3300083D3300083D33000830
:1000F0003D3300083D3300083D3300083D33000820
:100100003D3300083D3300083D3300083D3300080F
:100110003D3300083D3300083D3300083D330008FF
:100120003D3300083D3300083D3300083D330008EF
:100130003D3300083D3300083D3300083D330008DF
:100140003D3300083D3300083D3300083D330008CF
:100150003D3300083D3300083D3300083D330008BF
:100160003D3300083D3300083D3300083D330008AF
:100170003D3300083D3300083D3300083D3300089F
:080180003D3300083D33000887
:100188007BB972B90029BEBF00204FF0004106E0DC
:1001980008BF00281CBF6FF000414FF0FF3000F08F
:1001A80057B8ADF1080C6DE904CE002909DB002B26
:1001B8001ADB00F061F8DDF804E0DDE9022304B0A1
:1001C8007047404261EB4101002B1BDB00F054F803
:1001D800DDF804E0DDE9022304B0404261EB4101AF
:1001E800524263EB43037047524263EB430300F010
:1001F80043F8DDF804E0DDE9022304B0404261EB96
:1002080041017047524263EB430300F035F8DDF8D3
:1002180004E0DDE9022304B0524263EB4303704774
:1002280053B94AB9002908BF00281CBF4FF0FF3155
:100238004FF0FF3000F00CB8ADF1080C6DE904CEBA
:1002480000F01AF8DDF804E0DDE9022304B0704795
:10025800704700BF10F8012B11F8013B012A28BF95
:100268009A42F7D0D01A7047034613F8012B002A98
:10027800FBD1181A013870472DE9F04786468C469D
:100288000846089E154674461946002B40F0C28061
:100298008542B2FA82F245D94AB1C2F1200300FA86
:1002A80002FC2EFA03F3954043EA0C0C94404FEA03
:1002B800154EA8B2BCFBFEF8230C0EFB18CC08FBAD
:1002C80000F943EA0C43994528D9EB1808F1FF37A0
:1002D80004D2994502D9A8F102072B44A3EB0903DC
:1002E800A4B2B3FBFEFC0EFB1C330CFB00F044EA8B
:1002F8000344A04214D92C190CF1FF3304D2A042B4
:1003080002D9ACF102032C44241A43EA07401EB177
:10031800D440002334607360BDE8F0874746DDE7CA
:100328006346F1E792BB431B01214FEA154EAFB27A
:10033800B3FBFEFC200C0EFB1C330CFB07F840EA59
:100348000343984562D9EB180CF1FF3004D2984565
:1003580002D9ACF102002B44A3EB0803A4B2B3FB0F
:10036800FEFC0EFB1C330CFB07F744EA0344A742D0
:100378004ED92C190CF1FF3304D2A74202D9ACF1A3
:1003880002032C44E41B43EA0040C0E7C2F1200307
:1003980020FA03F1954090402EFA03F303434FEA05
:1003A800154EAFB2B1FBFEFC0EFB1C10190C0CFB7A
:1003B80007F841EA0041884504FA02F422D969188D
:1003C8000CF1FF3004D2884502D9ACF1020029446F
:1003D800A1EB08019BB2B1FBFEFC0EFB1C110CFB50
:1003E80007F743EA01439F420ED9EB180CF1FF319E
:1003F80004D29F4202D9ACF102012B44DB1B41EA33
:10040800004192E76046E3E76146F7E76046A3E705
:100418006346B7E7834206D916B9002108467BE749
:10042800C6E900E0F9E7B3FA83F78FB9834201D34D
:10043800724508D8BEEB020460EB030301209C461A
:100448001EB9002168E73846FAE7C6E9004CF8E724
:10045800C7F1200CBB4022FA0CF41C432EFA0CF115
:1004680020FA0CF3B84001434FEA14490EFA07F595
:10047800B3FBF9F81FFA84FE09FB18300B0C08FBD4
:100488000EFA43EA00439A4502FA07F240D9E31804
:1004980008F1FF3004D29A4502D9A8F1020023449A
:1004A800A3EB0A0389B2B3FBF9F809FB183308FB7D
:1004B8000EFE41EA03418E452CD9611808F1FF333D
:1004C80004D28E4502D9A8F10203214443EA004030
:1004D800A0FB0298A1EB0E014145CE46434602D34C
:1004E80006D14D4504D2B9EB020E68EB040301387E
:1004F800002EA6D0B5EB0E0261EB030101FA0CFC4D
:1005080022FA07F34CEA0303F940C6E9003198E7F9
:100518004046C5E74346D9E72DE9B04F90B000AF54
:1005280078637B6B1B68DA179A46934652465B469C
:100538004FF000004FF00001590141EAD26150012B
:1005480002460B46B2EB0A0463EB0B054FF00002C0
:100558004FF000036B0243EAD453620214461D466F
:1005680014EB0A0845EB0B094FF000024FF00003AB
:100578004FEA891343EA98634FEA8812B2EB0801FD
:10058800B96063EB0903FB60D7E902120B4613EB72
:100598000A03BB62134643EB0B03FB627B6B5B688E
:1005A800DA173B627A62D7E90A452346D7E9080198
:1005B80002469B183B600B462A4642EB03037B60CE
:1005C800D7E90034C7E90E34D7E90E23012A73F1BD
:1005D800000312DBD7E90E2315495118B96143F11D
:1005E8000003FB6110A3D3E90023D7E90601FFF755
:1005F800C7FD02460B46134611E0D7E90E230D4905
:100608005118396143F1FF337B6107A3D3E9002314
:10061800D7E90401FFF7B4FD02460B461346184616
:100628004037BD46BDE8B08F3AA3950000000000F2
:100638009DD14A00632EB5FF2DE9B04F9CB000AFA5
:1006480078667B6E1B68DA17BB65FA65D7E91623EF
:100658004FF000004FF00001590141EAD26150010A
:1006680002460B46B96D541AF96D63EB01054FF05C
:1006780000024FF000036B0243EAD45362021446AF
:100688001D46D7E91601034614EB0308C7E916010E
:100698000B4645EB03094FF000024FF000034FEA09
:1006A800891343EA98634FEA8812B2EB0801396369
:1006B80063EB09037B63D7E90C452346D7E91601A9
:1006C80002469B183B650B462A4642EB03037B65B3
:1006D8007B6E5B68DA17BB64FA64D7E91445234676
:1006E800D7E9120102469B18BB620B462A4642EB29
:1006F8000303FB62D7E90A34C7E91A34D7E91A2396
:10070800012A73F100033FDBD7E91A0102460B46C1
:1007180094183C625B417B62D7E908231418BC61DA
:100728004B41FB614FF000024FF00003D7E906454B
:1007380029460B01214643EA117321460A01214645
:10074800511A3961294663EB01037B614FF00002BE
:100758004FF00003D7E9044529468B00214643EAB8
:10076800917321468A002A495118396443F10003DC
:100778007B6425A3D3E90023D7E91001FFF700FD27
:1007880002460B4613463AE0D7E91A0102460B46E1
:100798009418BC605B41FB60D7E9022312EB000AA6
:1007A80043EB010B4FF000024FF000034FEA0B132D
:1007B80043EA1A734FEA0A12B2EB0A01396063EB93
:1007C8000B037B604FF000024FF00003D7E90045B0
:1007D80029468B00214643EA917321468A000D4938
:1007E8005118B96343F1FF33FB6307A3D3E900232F
:1007F800D7E90E01FFF7C4FC02460B46134618461C
:100808007037BD46BDE8B08FD8EF2F00000000005C
:10081800ECF717001408E8FF80B586B004AF04238E
:10082800022B16D90123FB71FB7983F00103DBB29C
:10083800002B0ED14A4B19684A4B029300230193AF
:100848000023009300230322002014F026F800233D
:100858003B6041F27C524FF000031046194614F0F9
:100868000EF8414B1B680021184614F0F7F83F4B6F
:100878001B680021184614F0F1F83B4B1B68022155
:10088800184614F0DCF84FF00A024FF00003104647
:10089800194613F0F4FF354B1B680221184614F073
:1008A800CEF8314B1B68B2EE040A184614F097F8DC
:1008B8002D4B1B689FED2E0A184614F0B0F82A4BF2
:1008C8001B689FED2C0A184614F099F8274B1B68F3
:1008D800B2EE040A184614F082F8244B1B689FED08
:1008E800240A184614F09BF8204B1B689FED220A37
:1008F800184614F084F84FF42F7013F094FF1A4B35
:100908001B68B2EE040A184614F069F8164B1B6807
:100918009FED170A184614F082F8134B1B689FEDD9
:10092800170A184614F06BF8104B1B68B2EE040A4D
:10093800184614F054F80D4B1B689FED0D0A184625
:1009480014F06DF8094B1B689FED0C0A184614F05B
:1009580056F84FF42F7013F066FF00BFA1E700BFF1
:1009680008040020701102080C0400201004002064
:100978009A99D93F00002042000020C200000000E0
:1009880080B483B000AF78607B68094A934205D38E
:100998007B68084A934201D2012300E0002303F058
:1009A8000103DBB218460C37BD465DF8047B70477F
:1009B800B0080208B048020880B5A4B000AFF860DB
:1009C800B9607A603B60FB68FB65FB6DC7F88C30EB
:1009D8000023C7F880300023FB670023BB674FF074
:1009E800FF337B67002387F86B307B6803F00403D1
:1009F800002B14BF0123002387F85B307B68DB08DA
:100A080003F0070301337B66002387F86330FB6834
:100A18007B65FB6803F00303002B02D06FF00D0326
:100A2800A2E3D7F88C300433C7F88C30FB6D002B69
:100A38000DD1BB6803F00703D7F88C201344C7F81F
:100A48008C30BB6803F00703C3F10803BB60FB6D80
:100A5800002B0AD0FB6DD7F88C20D31A0433BA6860
:100A68009A4202D26FF01B037EE33B68FB663B6849
:100A7800013B3B600423C7F884300423C7F888305F
:100A880097E197F86B3083F00103DBB2002B11D0AC
:100A98003B681B78252B40F07882012387F86B3060
:100AA8007B6F01337B670423C7F884300423C7F8BE
:100AB80088306AE23B681B787A2B00F349814C2B1B
:100AC80011DA472B00F344812A2B71DA252B00F029
:100AD8009280252B00F33C81202B00F05882232B99
:100AE80000F0558234E14C3B2E2B00F2318101A2FB
:100AF80052F823F0970F0008590D0008590D000807
:100B0800590D0008590D0008590D0008590D000825
:100B1800590D0008590D0008590D0008590D000815
:100B2800590D0008370C0008590D0008590D000828
:100B3800590D0008590D0008590D0008590D0008F5
:100B4800590D0008590D0008870C0008590D0008B8
:100B5800370C0008370C0008870C0008870C0008C1
:100B6800870C0008970F0008370C00080D0C0008C8
:100B7800590D0008970F0008590D0008730C00085C
:100B8800370C0008730C0008590D0008590D0008AF
:100B98006D0C0008290C0008370C0008590D0008D6
:100BA800590D0008370C0008590D00081B0C0008E7
:100BB8002A3B012202FA03F34FF6DA721A40002A9E
:100BC80014BF01220022D2B2002A40F0E08103F0D3
:100BD8006252002A14BF01220022D2B2002A4ED14A
:100BE80003F00103002B14BF01230023DBB2002B09
:100BF80040F0B280ACE0002387F86B307B6F013B9C
:100C08007B67C5E10823C7F884300823C7F8883014
:100C1800BEE10423C7F884300423C7F88830B7E15D
:100C28000423C7F884300423C7F88830B0E13B6850
:100C3800013B1B786C2B11D13B68023B1B786C2B5A
:100C480006D10823C7F884300823C7F8883005E0A0
:100C58000423C7F884300423C7F88830002387F8B2
:100C68006B307AE0012387F863300423C7F88430B7
:100C78000423C7F88830002387F86B306DE03B68A1
:100C8800013B1B784C2B13D1D7F89830073323F04E
:100C9800070303F10802C7F89820D3E90023C7E93E
:100CA80006230823C7F884300823C7F8883012E0E1
:100CB800D7F89830073323F0070303F10802C7F881
:100CC8009820D3E90023C7E906230823C7F884300E
:100CD8000823C7F88830D7F88420D7F88C30134415
:100CE8005A1ED7F88430B2FBF3F2D7F8843002FBEF
:100CF80003F3C7F88C30FB6D002B1ED0FB6DD7F8C3
:100D08008C20D21AD7F888301344BA689A4202D293
:100D18006FF01B0328E23B68013B1B784C2B06D184
:100D2800D7F88C10D7E90623C1E9002305E0D7F8E6
:100D38008C10D7E90623C1E90023D7F88C20D7F80F
:100D480088301344C7F88C30002387F86B301FE1D4
:100D5800002387F86B301BE100BFD7F88420D7F851
:100D68008C3013445A1ED7F88430B2FBF3F2D7F80C
:100D7800843002FB03F3C7F88C30FB6D002B0CD0DA
:100D8800FB6DD7F88C20D21AD7F888301344BA688C
:100D98009A4202D26FF01B03E6E197F86330002B0A
:100DA80000F0A080D7F898301A1DC7F898201B6863
:100DB800FB66FB6D002B03D0D7F88C30FA6E1A60F7
:100DC8007B6E5A1E7A66002B05DCF86E14F0E1F88B
:100DD8000346002B01D0012300E0002387F853309D
:100DE8007B6803F00203002B14BF0123002387F85C
:100DF800523097F85330002B06D097F8523083F0D2
:100E08000103DBB2002B64D1FB6DD7F88C20D31A19
:100E18009B08FB6497F85230002B05D0FB6C7F2BA6
:100E280002D96FF015039FE1D7F880300F2B02D954
:100E38006FF0150398E1FB6D002B2DD0FB6CD9B238
:100E480007F13002D7F8803013440A461A707B6FD6
:100E5800D9B207F12002D7F8803013440A461A7035
:100E680097F85330002B13D007F13002D7F88030B1
:100E780013441B7863F07F03D9B207F13002D7F827
:100E8800803013440A461A70BB6F0133BB671BE0FE
:100E9800FB6F0133FB6717E097F85330002B03D043
:100EA800BB680133BB600FE097F85B30002B03D0C1
:100EB800BB680233BB6007E0F86EFFF7D5F902465E
:100EC800BB6813440233BB60D7F880300133C7F8DE
:100ED8008030D7F88C300433C7F88C30002387F87B
:100EE800633055E0D7F88830042B13D1D7F8983001
:100EF8001A1DC7F898201B687B64FB6D002B03D074
:100F0800D7F88C307A6C1A60D7F88C300433C7F86D
:100F18008C303DE0D7F88830042B13D1D7F89830BF
:100F28001A1DC7F898201B68BB64FB6D002B03D003
:100F3800D7F88C30BA6C1A60D7F88C300433C7F8FD
:100F48008C3025E0D7F88830082B1BD1D7F898309B
:100F5800073323F0070303F10802C7F89820D3E901
:100F68000023C7E90423FB6D002B05D0D7F88C10AC
:100F7800D7E90423C1E90023D7F88C300833C7F830
:100F88008C3005E06FF01503EEE000BF00E000BF15
:100F98003B6801333B603B681B78002B7FF471ADE5
:100FA80000BFFB6DD7F88C20D31AB3F5806F02D33E
:100FB8006FF01503D8E0FB6D002B07D1FB6DD7F858
:100FC8008C20D21ABB681344083BCDE0FB6D00228D
:100FD8001A60FB6DD7F88C20D31A9B08DAB27B6DA8
:100FE8001A7097F85B30002B07D07B6D00225A707F
:100FF800FB6FDAB27B6DDA7006E0FB6FDAB27B6DFD
:101008005A707B6D0022DA70BB6FDAB27B6D9A7012
:10101800BB6F002B32D000233B672AE007F1300278
:101028003B6F13441B785BB2002B1EDA07F13002CA
:101038003B6F13441B7803F07F0387F84330FB6D45
:10104800D7F88C20D31A0133BA689A4202D26FF0CB
:101058001B0389E0D7F88C3097F843201A70D7F82B
:101068008C300133C7F88C3000E000BF3B6F013390
:101078003B673A6FD7F880309A42CFD300233B675B
:1010880069E0BB6F002B07D007F130023B6F1344B8
:101098001B785BB2002B5ADB97F85B30002B10D023
:1010A8000023C7F88830D7F88C3007F120013A6F51
:1010B8000A4412781A70D7F88C300133C7F88C308C
:1010C8001AE007F130023B6F13441B789B00FA6D5E
:1010D80013441B68FB6607F130023B6F13441B780F
:1010E8009B00FA6D134400221A60F86EFFF7BCF8F3
:1010F80003460133C7F88830FB6DD7F88C20D21A25
:10110800D7F8883013440133BA689A4202D26FF094
:101118001B0329E0D7F88C3007F130013A6F0A44F5
:1011280012781A70D7F88C300133C7F88C30D7F89A
:101138008C30D7F88820F96E18461FF0C2F9D7F816
:101148008C20D7F888301344C7F88C3000E000BFF3
:101158003B6F01333B673A6FD7F880309A4290D3A0
:10116800FB6DD7F88C20D31A18469037BD4680BD42
:1011780080B483B000AF7860044A7B68136000BF16
:101188000C37BD465DF8047B704700BF140400208F
:1011980080B500AF1FF07EFB0346024A9B581846F5
:1011A80080BD00BF0800000080B584B000AFF860C3
:1011B800B9607A603B6013F08FFF02461FF06AFB4C
:1011C800034606495A50FB683A687968B8689847F0
:1011D800FFF7DEFF0346184613F085FF08000000FE
:1011E80080B400AF054B5B68044A23F002035360E8
:1011F80000BFBD465DF8047B704700BF002004E0D7
:1012080080B400AF054B1B68044A43F48073136035
:1012180000BFBD465DF8047B704700BF003C02403C
:1012280080B400AF054B1B68044A43F40073136095
:1012380000BFBD465DF8047B704700BF003C02401C
:1012480080B400AF054B1B68044A43F48063136005
:1012580000BFBD465DF8047B704700BF003C0240FC
:1012680080B500AFFFF7CCFFFFF7DAFFFFF7E8FF25
:10127800024B034A1A6000BF80BD00BF90090020DE
:101288000024F40080B485B000AF78607B681B014F
:10129800044A1344FB60FB6818461437BD465DF8E2
:1012A800047B70471011020880B483B000AF7860E7
:1012B800044A7B6852F8233018460C37BD465DF85F
:1012C800047B7047483A020880B500AF074B0022FC
:1012D8001A70074B00221A60064B00221A604FF45E
:1012E8007A71054800F07CF880BD00BFE428002032
:1012F800B8220020B4220020A353010880B586B08C
:1013080000AF03460A46FB711346BB7100237B619D
:10131800304813F033FF0346002B01D0002355E07B
:1013280000233B612C4BFB6035E00123BB600020B0
:10133800FFF7A8FF0246FB689B1A1B111A46BB68F9
:101348001344BB60BB68DBB21946F86813F0EAFFC8
:10135800FB681B7B002B18D0F86813F09CFFF8681B
:1013680013F0AFFF0346002B08D1FB685B681B68CE
:1013780004221946F86814F008F906E001223B69CE
:1013880002FA03F37A6913437B613B6901333B61DA
:10139800FB681033FB60FB68104A934234BF01239B
:1013A8000023DBB2002BC0D1FB79002B0DD009E064
:1013B800786913F0F9FF7861BB79002B02D00A2015
:1013C80013F00AFF7B69002BF2D17B6918461837A6
:1013D800BD4680BDB022002010110208201102086D
:1013E80080B582B000AF786039607B68002B02D18D
:1013F8006FF0150309E0074A7B681360064A3B68EB
:101408001360386800F0DAFC002318460837BD4638
:1014180080BD00BF18040020BC22002080B582B027
:1014280000AF144B1B78002B20D100210120FFF7BF
:1014380065FF114B7B600BE0786813F083FF034670
:10144800002B02D0786813F060FF7B6810337B6054
:101458007B680A4A934234BF01230023DBB2002B86
:10146800EAD100BF034B01221A7000E000BF083721
:10147800BD4680BDE4280020101102082011020892
:1014880080B584B000AF7860124BFB6013E0F86859
:1014980013F058FF0346002B0AD07968F86813F058
:1014A800BEFF0346002B03D07968F86813F01EFFCF
:1014B800FB681033FB60FB68074A934234BF012383
:1014C8000023DBB2002BE2D100BF00BF1037BD46BE
:1014D80080BD00BF101102082011020880B400AFBF
:1014E800034B01221A7000BFBD465DF8047B7047AC
:1014F800E528002080B582B000AF0346FB7106489E
:1015080013F03CFEFB79002B02D0044813F043FE95
:1015180000BF0837BD4680BDB8220020B422002095
:1015280080B582B000AF7860064B1B6898470246CA
:101538007B689A607968044813F086FF00BF083713
:10154800BD4680BD18040020040A002080B483B082
:1015580000AF78607B68044A9B1ADB0818460C3792
:10156800BD465DF8047B70476810020880B500AF7F
:101578000248FFF7EBFF0346184680BD101102082A
:1015880080B485B000AF03463960FB71184BFB602F
:101598001BE0FB689B689B68DAB2FB689B681B686A
:1015A800DBB21344FB72FA79FB7A9A420AD2FB68DF
:1015B8009B689B68DBB2FA79D31ADAB23B681A7077
:1015C800FB680FE0FB681833FB60FB68094A93422D
:1015D80034BF01230023DBB2002BDAD13B680022A1
:1015E8001A70002318461437BD465DF8047B70470F
:1015F800201102082011020880B58AB002AF034604
:101608003960FB711C4BDB693B61FB793B733B68C1
:101618009BB2FB81FB6807F114021946164814F0C7
:10162800DEF8034683F00103DBB2002B1FD007F17D
:101638000B02FB7911461846FFF7A2FFF861FB7A07
:1016480018463B689AB2796907F1100300930B4674
:101658000146F86913F046FFB861BB69002B01DA4F
:10166800002305E07B691946034814F03BF97B69C0
:1016780018462037BD4680BDC022002080B582B004
:1016880000AF786039607B68DBB2184613F0FAFE69
:101698000346002B0DD0786813F052FF02463B68D2
:1016A800934204D2084A3B6852F8333008E00023DA
:1016B80006E07B68DBB239681846FFF79DFF0346F2
:1016C80018460837BD4680BD6810020880B483B04C
:1016D80000AF78607B68044A9B1ADB0818460C3711
:1016E800BD465DF8047B70476810020880B590B06D
:1016F80004AFB9607B600346FB731346BB733B6C56
:10170800002B0BD07B6C3B613B6900933B6CFA6B05
:1017180010210020FFF750F9F86201E00023FB6276
:10172800FB6AB3F5006F1DD30323012B73D9012383
:10173800FB77FB7F83F00103DBB2002B6BD1374BC8
:10174800196840F2FF730393354B0293002301930A
:101758000023009300230222002014F0D5F8002370
:10176800BB6158E0FA6ABB6B1344173323F00703D5
:1017780003339B08BB623B7D6FF300033B753B7DE6
:101788006FF341033B753B7D6FF382033B75FB7B36
:1017980003F00703DAB23B7D62F3C5033B75BB7BFD
:1017A80003F00703DAB2BB8A62F38813BB82FB6AD1
:1017B800C3F30A039AB27B6962F353237B61BB6B61
:1017C800C3F30B039AB2FB8A62F30F13FB82BB6A63
:1017D8009B000733DB08DB00ADEB030D04AB0733DD
:1017E800DB08DB007B627B6A10333B623B6A002BC1
:1017F8000BD03B6C002B08D0F96A7B6C00933B6CD8
:10180800FA6B386AFFF7D8F8F8627B687A69B968C2
:10181800786A14F0CAF83037BD4680BD1C04002031
:101828006414020880B584B000AFF860B9607A60CB
:101838007B68BA680449F86813F0CBFB034618467E
:101848001037BD4680BD00BF7933000880B483B02F
:1018580000AF78607B680133044A13441B7818464C
:101868000C37BD465DF8047B704700BFA0470208EF
:101878000EB480B585B000AF78600023FB6007F137
:101888002003BB60BB68FA697968064801F070FDFF
:10189800F860FB6818461437BD46BDE8804003B0C1
:1018A800704700BF9B5B010880B592B004AFF86039
:1018B800B9607A60BB6803F04403002B14BF0123AE
:1018C800002387F8333097F8333083F00103DBB215
:1018D800002B06D07A683849F868FFF7C9FF7863A3
:1018E80065E0364B1B68002B5FD0354B1B687A6868
:1018F800B2FBF3F37B60314B1B687A68B2FBF3F3FE
:10190800FB622E4B1A687B68B3FBF2F101FB02F213
:101918009B1ABB62BB6A4FF47A7203FB02F2274B35
:101928001B68B2FBF3F37B62BB6A4FF47A7203FB6A
:1019380002F2224B1B68796A01FB03F3D31A4FF4B6
:101948007A7203FB02F21D4B1B68B2FBF3F33B6296
:10195800FB6AFB61FB691B4AA2FB0323DB0ABB6131
:10196800BB694FF4616202FB03F3FA69D31AFB61A6
:10197800FB69154AA2FB03235B097B617A6913465D
:101988001B019B1A9B001A46FB699B1AFB613B6A69
:1019980002937B6A0193FB6900937B69BA690B49DF
:1019A800F868FFF765FF786301E000237B637B6BD2
:1019B80018463837BD4680BDBC140208E022002016
:1019C800E4220020C5B3A29189888888C814020837
:1019D80080B586B000AFF8607B600B46FB7213469B
:1019E800BB72FB7A002B14D0BB7A002B0AD00B4AAF
:1019F8007B6852F82330002B04D0084A7B6852F8E1
:101A0800233000E0064B7B617A690649F868FFF7E6
:101A18002FFF00BF1837BD4680BD00BF6C3A0208D3
:101A2800E4140208EC14020880B584B000AF7860B2
:101A3800084611461A460346FB700B46BB70134610
:101A48007B700023FB60FB78002B0CD0194A7B6A63
:101A580052F823301A4618497868FFF709FF0246FA
:101A6800FB681344FB60BB69002B08D0BA691349B3
:101A78007868FFF7FDFE0246FB681344FB60FB69CC
:101A8800002B11D0BB78002B04D07B6A042B01D12A
:101A98000B4B00E00B4BFA6919467868FFF7E8FE34
:101AA8000246FB681344FB60FB6818461037BD46C6
:101AB80080BD00BF583A0208F0140208F814020862
:101AC800FC1402080015020880B582B000AF7860E7
:101AD80039603B6803F01003002B0ED13B6803F01C
:101AE8002003002B04D007497868FFF7C1FE05E002
:101AF80005497868FFF7BCFE00E000BF0837BD461F
:101B080080BD00BF081502080C15020880B588B012
:101B180000AFF860B9607A603B60B96AF868FFF7AF
:101B2800D3FF0023FB6106E03749F868FFF7A0FE02
:101B3800FB690133FB61FA693B689A42F4DB0023D5
:101B4800BB6120E0BB69002B08DDBB6903F007031C
:101B5800002B03D12C49F868FFF78AFEBB697A6825
:101B68009A4209D9BB69BA6813441B781A462749AF
:101B7800F868FFF77DFE03E02549F868FFF778FE6F
:101B8800BB690133BB61BB690F2BDBDD2149F868F9
:101B9800FFF76EFE00237B612DE07B69002B08DDDB
:101BA8007B6903F00703002B03D11749F868FFF797
:101BB8005FFE7B697A689A4216D97B69BA681344D2
:101BC8001B78FB74FB7C1846FFF740FE034603F0C6
:101BD8009703002B01D0FB7C00E02E231A460E4908
:101BE800F868FFF745FE03E00749F868FFF740FE8D
:101BF8007B6901337B617B690F2BCEDD00BF00BFA2
:101C08002037BD4680BD00BF101502081415020814
:101C18001C150208201502082415020890B58DB07D
:101C280004AFF860B9603B601346FB710023FB61A9
:101C3800BB6803F00203002B14BF01230023FB76CB
:101C4800BB6803F00103002B14BF01230023BB76FC
:101C5800BB6803F00803002B14BF012300237B7625
:101C68000023FB74BB6803F48073002B14BF0123AB
:101C780000233B7613F0F5FB78617B69002B09D0D4
:101C88007A691E49F868FFF7F3FD03461A46FB69AF
:101C98001344FB61FB7E002B09D03A68B968F868E9
:101CA800FFF702FE03461A46FB691344FB6197F8E7
:101CB8003C20BB7E1946F86813F098FFFC7C3B7EFD
:101CC800002B01D0002300E07B6B97F83C20F879CB
:101CD800797E0392BA6B029201933B6B0093234681
:101CE8000246F868FFF7A0FE03461A46FB6913444C
:101CF800FB61FB6918462437BD4690BD30150208C4
:101D080080B58CB004AFF860B9607A603B6097F832
:101D18002C30002B0CBF01230023FB75FB7D83F0C7
:101D28000103DBB2002B12D097F82C300393BB6A67
:101D380002933B6801937B680093BB680022F96BB0
:101D4800F868FFF76BFFF8611A4BBB6108E00023E6
:101D5800FB613B68012B01D1164B00E0164BBB61C0
:101D68003B6B002B05D03A6BF968B869FFF75AFD51
:101D78003861BB6B002B08D0FA69FB6B00931346E4
:101D8800BA6B796BF86813F053FFFB7D83F001039E
:101D9800DBB2002B06D097F82C301A46F96BF8689E
:101DA80013F06AFFF86813F0DBFE00BF2037BD466A
:101DB80080BD00BF9B5B0108CB5B010880B483B08A
:101DC80000AF78600C4B01221A6007E07B685B0863
:101DD8007B60094B1B685B00074A13607B68074AF6
:101DE8009342F3D8064A7B68136000BF0C37BD46A0
:101DF8005DF8047B704700BFE422002040420F00DA
:101E0800E022002080B588B000AFF860B9607A6041
:101E18007B68BB61BB695B687B61154B3B6138695B
:101E280014F024F80346002B01DAB9681AE00023FD
:101E3800FB610AE0FA68FB6913441B7819463869A4
:101E480014F005F8FB690133FB61FA69BB689A4233
:101E5800F0D300BF4FF00A024FF00003386914F0C6
:101E680010F8B9680B4618462037BD4680BD00BF3C
:101E7800000B020880B586B000AF78607B685B68AD
:101E88001B683B61064BFB603B695B687B613B6998
:101E98001B683969184613F099FF1837BD4680BD8D
:101EA800000B020880B586B000AF78607B685B687D
:101EB8001B687B617B695B683B61074BFB603B6927
:101EC80001221A777B691B68184613F0A2FF00BF2E
:101ED8001837BD4680BD00BF000B0208F0B59DB0A5
:101EE8000CAF78600323002B20D00123FB77FB7F06
:101EF80083F00103DBB2002B18D1764B18687B689E
:101F08001B687A6852687968896805910492039316
:101F1800714B0293002301930023009300230122B5
:101F28000146002013F0EFFF0023BB610323002BC1
:101F380020D00123FB75FB7D83F00103DBB2002B6E
:101F480018D1644B18687B68DB687A68126979680D
:101F58004969059104920393604B0293002301930E
:101F680000230093002301220146002013F0CBFF39
:101F780000233B610323002B19D00123FB73FB7B58
:101F880083F00103DBB2002B11D1524B19687B6837
:101F9800DB690393524B02930023019300230093C0
:101FA80000230122002013F0AEFF0023FB6300236F
:101FB800BB6348E00323002B42D0012387F8273076
:101FC80097F8273083F00103DBB2002B38D1414B5F
:101FD8001B683B607B68BA6B083253F82230BA6BD7
:101FE8000132B96B481C7968083051F82010B86B79
:101FF8000230BC6BA51C7C68083554F82540BD6BC5
:102008000335BE6B06F1030C7E680CF1080C56F81C
:102018002C600A96099508940790069105920493F6
:10202800BB6B03932F4B0293002301930023009370
:10203800002301223968002013F065FF00233B626A
:10204800BB6B0433BB63BB6B0F2BB3D90323002BD0
:102058001BD0012387F8373097F8373083F0010316
:10206800DBB2002B11D11B4B19687B681B6E0393E5
:102078001D4B0293002301930023009300230122A8
:10208800002013F040FF00233B630323002B1CD0E8
:10209800012387F82F3097F82F3083F00103DBB244
:1020A800002B12D10B4B19687B689B6903930F4B6C
:1020B80002930023019300230093002301220020B0
:1020C80013F021FF0023BB6200BF00BF4437BD46A9
:1020D800F0BD00BF28040020C8160208F816020840
:1020E80028170208381702087C1702088C170208FC
:1020F80080B58AB004AF786039603B68002B02D0A5
:102108003868FFF7EBFE7B68012B21D1EFF30583DD
:10211800BB60BB68103B7B610323002B18D00123F5
:10212800FB74FB7C83F00103DBB2002B10D10C4B5A
:1021380019687B6903930B4B0293002301930023D7
:10214800009300230122002013F0DDFE0023FB6032
:10215800396878680CF0DEFF00BF1837BD4680BDCF
:1021680028040020BC17020880B500AF034B1B6889
:10217800984700F035F800BF80BD00BF2C04002050
:1021880030BFFFF7FDBF00BF80B400AF034A044B68
:1021980013441846BD465DF8047B704700000000F4
:1021A8000400000080B582B000AF7860094B1A4681
:1021B800094978681EF085F9064A7B6813447B60F4
:1021C800064B1A46002178681EF089F900BF0837C7
:1021D800BD4680BD00000000611102080400000037
:1021E80080B400AF084B9A69074B9B689A4205D0A8
:1021F800064B5B68054A43F08053536000BFBD46F9
:102208005DF8047B704700BF9C28002000ED00E0CB
:1022180080B59AB004AFF860B9607A6010237B6526
:102228006FF015033B650323002B18D0012387F8B3
:102238004F3097F84F3083F00103DBB2002B0ED1FB
:102248008C4B19688C4B0293002301930023009355
:1022580000230122002013F0A8FE0023BB64874B53
:102268009B6A03F01003002B1DD011237B65032309
:10227800002B18D0012387F8473097F8473083F0B0
:102288000103DBB2002B0ED17A4B19687C4B029309
:10229800002301930023009300230122002013F060
:1022A80084FE00233B64754B9B6A03F00803002BF4
:1022B8001DD012237B650323002B18D0012387F838
:1022C8003F3097F83F3083F00103DBB2002B0ED18B
:1022D800684B19686B4B029300230193002300930A
:1022E80000230122002013F060FE0023BB63634B30
:1022F8009B6A03F00203002B4FD013237B65032353
:10230800002B18D0012387F8373097F8373083F03F
:102318000103DBB2002B0ED1564B19685A4B0293BE
:10232800002301930023009300230122002013F0CF
:102338003CFE00233B63514B5B6BFB624F4B9B6A3C
:1023480003F08003002B28D0FB6A3B650323002B96
:102358001AD0012387F82B3097F82B3083F001032C
:10236800DBB2002B10D1434B19683B6D0393474BED
:1023780002930023019300230093002301220020ED
:1023880013F013FE00237B62BB68002B05D03B4B88
:102398009B6A3A4A23F080039362384B9B6A03F0A6
:1023A8000103002B1DD014237B650323002B18D0B9
:1023B800012387F8233097F8233083F00103DBB239
:1023C800002B0ED12B4B1968314B0293002301933C
:1023D8000023009300230122002013F0E6FD0023D0
:1023E800FB61264B9B6A03F02003002B1BD01523AF
:1023F8007B650323002B16D00123FB76FB7E83F03D
:102408000103DBB2002B0ED11A4B1968214B029342
:10241800002301930023009300230122002013F0DE
:10242800C4FD00237B61154B9B6A03F01003002B4E
:1024380001D1124B9B6A114B9B6A03F02003002BBE
:1024480005D00E4B5B6A0D4A23F4005353620B4BC5
:102458009B6A0A4A43F0FF0393620121F86813F06C
:10246800CDFD03461A467B681A707B6D18465837AF
:10247800BD4680BD30040020D017020800ED00E002
:10248800E81702081C180208301802084818020841
:10249800601802088018020880B59AB004AFF86086
:1024A800B9607A6016237B650323002B18D00123BB
:1024B80087F8533097F8533083F00103DBB2002BD1
:1024C8000ED1934B1968934B029300230193002379
:1024D800009300230122002013F067FD0023FB6412
:1024E8008D4B9B6A03F48053002B1DD017237B650B
:1024F8000323002B18D0012387F84B3097F84B3073
:1025080083F00103DBB2002B0ED1814B1968834B9A
:10251800029300230193002300930023012200204B
:1025280013F043FD00237B647B4B9B6A03F4006339
:10253800002B1DD018237B650323002B18D0012303
:1025480087F8433097F8433083F00103DBB2002B60
:102558000ED16F4B1968724B02930023019300232D
:10256800009300230122002013F01FFD0023FB63CA
:10257800694B9B6A03F40073002B4DD019237B65CC
:102588000323002B18D0012387F83B3097F83B3002
:1025980083F00103DBB2002B0ED15D4B1968614B50
:1025A80002930023019300230093002301220020BB
:1025B80013F0FBFC00237B63574B9B6B3B63564B31
:1025C8009B6A03F40043002B26D00323002B1AD068
:1025D800012387F82F3097F82F3083F00103DBB2FF
:1025E800002B10D14A4B19683B6B03934E4B029357
:1025F800002301930023009300230122002013F0FD
:10260800D4FC0023BB62BB68002B05D0424B9B6AFD
:10261800414A23F4004393623F4B9B6A03F480636F
:10262800002B1DD01A237B650323002B18D0012310
:1026380087F8273097F8273083F00103DBB2002BA7
:102648000ED1334B1968394B0293002301930023B1
:10265800009300230122002013F0A7FC00233B6213
:102668002D4B9B6A03F48073002B1CD01B237B65C6
:102678000323002B39D00123FB75FB7D83F0010375
:10268800DBB2002B31D1224B1968294B029300236E
:1026980001930023009300230122002013F085FCFE
:1026A80000233B6121E01C4B9B6A03F40053002B81
:1026B8001BD01C237B650323002B16D00123FB773B
:1026C800FB7F83F00103DBB2002B0ED1104B19689E
:1026D800184B029300230193002300930023012247
:1026E800002013F062FC0023BB610B4B9B6A0A4A73
:1026F80043F47F4393620121F86813F07FFC03469B
:102708001A467B681A707B6D18465837BD4680BDDF
:1027180030040020B018020800ED00E0C8180208D4
:102728001C180208DC180208F81802081019020818
:102738002C1902088018020880B596B004AF78609A
:102748001D237B640323002B18D0012387F8433013
:1027580097F8433083F00103DBB2002B0ED1784B9E
:102768001968784B029300230193002300930023F8
:102778000122002013F019FC0023FB63724B9B6AB3
:1027880003F00073002B1DD01E237B640323002B52
:1027980018D0012387F83B3097F83B3083F00103CA
:1027A800DBB2002B0ED1664B1968684B02930023ED
:1027B80001930023009300230122002013F0F5FB6E
:1027C80000237B63604B9B6A03F08073002B1DD052
:1027D8001F237B640323002B18D0012387F8333091
:1027E80097F8333083F00103DBB2002B0ED1544B42
:1027F8001968574B02930023019300230093002389
:102808000122002013F0D1FB0023FB624E4B9B6A90
:1028180003F40023002B1DD021237B640323002B0A
:1028280018D0012387F82B3097F82B3083F0010359
:10283800DBB2002B0ED1424B1968464B02930023A2
:1028480001930023009300230122002013F0ADFB25
:1028580000237B623C4B9B6A03F48023002B1DD032
:1028680022237B640323002B18D0012387F823300D
:1028780097F8233083F00103DBB2002B0ED1304BE5
:102888001968354B0293002301930023009300231A
:102898000122002013F089FB0023FB612A4B9B6A6D
:1028A80003F40033002B1BD023237B640323002B6A
:1028B80016D00123FB76FB7E83F00103DBB2002BED
:1028C8000ED11F4B1968254B029300230193002357
:1028D800009300230122002013F067FB00237B6193
:1028E800194B9B6A03F48033002B1BD024237B6491
:1028F8000323002B16D00123FB74FB7C83F0010318
:10290800DBB2002B0ED10E4B1968154B0293002336
:1029180001930023009300230122002013F045FBBC
:102928000023FB60084B9B6A074A6FEA03436FEA80
:10293800134393627B6C18464837BD4680BD00BF81
:10294800300400204419020800ED00E05C19020878
:10295800701902088C190208AC190208D419020867
:10296800F019020880B588B004AF786039603B6818
:1029780000221A700323002B17D00123FB73FB7B63
:1029880083F00103DBB2002B0FD10A4B19680A4B05
:1029980002930023019300230093002301220020C7
:1029A80013F003FB0023BB6000BF00BF1037BD4618
:1029B80080BD00BF300400201C1A020880B485B016
:1029C80000AF78607B689B69FB601B4B5B691A4AA8
:1029D80043F480735361BFF34F8F00BF00BF00BF44
:1029E800BFF36F8F00BF00BF00BFFB6833F8023C26
:1029F8007B81114B5B69104A23F480735361BFF3E9
:102A08004F8F00BF00BF00BFBFF36F8F00BF00BF75
:102A180000BF7B8903F47F43B3F55F4F05D17B8902
:102A2800DBB2022B01D1012300E000231846143742
:102A3800BD465DF8047B704700ED00E080B592B0BC
:102A480004AF786039600023FB620323002B18D0A1
:102A5800012387F8333097F8333083F00103DBB272
:102A6800002B0ED1634B1968634B0293002301932B
:102A78000023009300230122002013F096FA00237C
:102A88007B633B6800221A705C4BDB6A03F002032D
:102A9800002B1CD00323002B00F0A7800123FB741C
:102AA800FB7C83F00103DBB2002B40F09E80514B8E
:102AB8001968534B029300230193002300930023CA
:102AC8000122002013F071FA0023FB608DE04B4BCC
:102AD800DB6A002B1BDA0323002B00F0868001231E
:102AE800FB76FB7E83F00103DBB2002B7DD1414BEB
:102AF8001968444B02930023019300230093002399
:102B08000122002013F051FA00237B616DE03B4B5A
:102B1800DB6A03F08043002B67D00323002B18D017
:102B2800012387F82B3097F82B3083F00103DBB2B1
:102B3800002B0ED12F4B1968334B029300230193BE
:102B48000023009300230122002013F02EFA002313
:102B58007B627868FFF732FF0346002B22D00323FD
:102B6800002B1BD0012387F8233097F8233083F0FC
:102B78000103DBB2002B11D11E4B19687B681B685F
:102B88000393224B02930023019300230093002315
:102B98000122002013F009FA0023FB617B681B68FF
:102BA800FB6222E0154B9B6ADBB2002B06D03A6829
:102BB80001217868FFF72CFBF86216E00F4B9B6A3F
:102BC80003F47F43002B07D03A6801217868FFF7A8
:102BD80063FC0346FB6208E0084B9B6AB3F5803F41
:102BE80003D37868FFF7A8FDF862FB6A1846383700
:102BF800BD4680BD30040020401A020800ED00E008
:102C0800581A02087C1A02088C1A0208AC1A020820
:102C180080B58AB006AF786039600323002B21D0D5
:102C28000123FB73FB7B83F00103DBB2002B19D17B
:102C38000E4B19683B680F2B01DC0D4B00E00D4B68
:102C48003A68103A049203930B4B029300230193C2
:102C58000023009300230122002013F0A6F900238B
:102C6800BB6000BF00BF1037BD4680BD30040020E8
:102C7800C81A0208E01A0208FC1A020880B586B0D1
:102C880000AFF860B9607A6000237B617B6800223E
:102C98001A70BB68033B092B35D801A252F823F000
:102CA800D12C0008DD2C0008EB2C0008FB2C0008B8
:102CB8000F2D00080F2D00080F2D00080F2D0008FC
:102CC8000F2D0008052D00087968F868FFF7B6FE93
:102CD80078611DE07A680021F868FFF799FA786151
:102CE80016E07A680021F868FFF7D6FB03467B6197
:102CF8000EE0F868FFF720FD786109E07968F86868
:102D0800FFF730FE04E0B968F868FFF781FF00BFFD
:102D18007B681B7883F00103DBB2002B03D0B96812
:102D2800F86813F060F97B6918461837BD4680BD0E
:102D380080B58CB004AFF860B9607A603B6000235E
:102D4800FB760023FB613B6800221A707B6803F066
:102D58007F43B3F17F4F01D0002339E07B6803F054
:102D68000803002B20D07B6803F00403002B1BD141
:102D78000323002B16D00123BB76BB7E83F001030F
:102D8800DBB2002B0ED1144B1968144B02930023AD
:102D980001930023009300230122002013F005F97A
:102DA80000237B61002313E0FB7E83F00103DBB289
:102DB800002B0CD07B6803F00803002B02D0BB6803
:102DC800FB6104E0FB68FB613B6801221A70FB6948
:102DD80018462037BD4680BD30040020101B02086D
:102DE80080B5A6B000AFF860B9607A603B60002398
:102DF800C7F894302E4B5B68C3F30803C7F89030CC
:102E08000023C7F88030D7F88030FB67FB6F83F367
:102E1800118800BFBFF36F8F00BF00BF07F17A03AF
:102E28007A68B968F868FFF783FFC7F88C00D7F8A5
:102E38008C30C7F888307B68C7F8843000BF07F14A
:102E48007B031A46D7F89010D7F88C00FFF716FFC7
:102E5800C7F8940097F87B30002B25D107F11003B1
:102E68006822D7F88C1018461DF02BFB97F87A309B
:102E7800002B0BD0FB6AC3F30803002B0CD1FB6AB1
:102E88006FEA53236FEA4323FB6205E0FB6A23F4EE
:102E9800FF7323F00103FB6207F110031946D7F80B
:102EA8009400FFF725F900E000BF9837BD4680BDC4
:102EB80000ED00E080B400AF084B5B69074A43F0BF
:102EC80010035361054B5B69044A23F008035361FF
:102ED80000BFBD465DF8047B704700BF00ED00E011
:102EE800EFF30880EFF3098101B57246FFF778FF29
:102EF80001BD00BF00200A490870102080F3118826
:102F080008484FF40061401880F30988EFF31480F3
:102F18000221084380F31488BFF36F8F13F0A7F8DA
:102F2800E62800202842002080B584B000AF7860F1
:102F3800114B9B687A689A4216D1EFF30583FB60C0
:102F4800FB68002B14BF01230023DBB2002B0BD03E
:102F58000A4B5B68094A43F080535360074B5B6A2E
:102F6800064A23F40043536278680FF0D3F900BF90
:102F78001037BD4680BD00BF9C28002000ED00E052
:102F880021498A6882F8F9E04FF030001044EFF3E5
:102F9800098C80E8F01F1EF0100F03D102F1B80071
:102FA80080EC108A102080F31288BFF36F8F174FC0
:102FB8004FF000668A698A603E60D2F8AC00144C13
:102FC800206092F9F9E0D2F8B0000023C2F8B030DE
:102FD80080F311881EF0100F03D00023E1EE103AA1
:102FE80003E002F1B80090EC108AEFF3148323F0A9
:102FF800040383F31488BFF36F8F02F1300090E865
:10300800F01F8CF3098870479C28002004ED00E02D
:10301800182300201EF0040F0CBFEFF30880EFF315
:103028000980816911F8021C0229FFD001B5724696
:1030380012F087FF01BD00BF80B483B000AF034624
:10304800FB7197F90730002B0BDBFB7903F01F02AC
:10305800074997F907305B09012000FA02F241F8A5
:10306800232000BF0C37BD465DF8047B704700BFC6
:1030780000E100E080B483B000AF03463960FB7123
:1030880097F90730002B0ADB3B68DAB20C4997F94D
:1030980007301201D2B20B4483F800230AE03B68E0
:1030A800DAB20849FB7903F00F03043B1201D2B2EC
:1030B8000B441A7600BF0C37BD465DF8047B704799
:1030C80000E100E000ED00E080B400AF094B0A4ADF
:1030D80023F07F039360BFF34F8F00BF00BF00BF93
:1030E800BFF36F8F00BF00BF00BF00BFBD465DF8D4
:1030F800047B70470000000800ED00E080B483B056
:1031080000AF154BD3F88830134A23F47003C2F884
:103118008830114BD3F888300F4A43F4A003C2F823
:1031280088300E4B4FF040425A60BFF34F8F00BFBC
:1031380000BF00BFBFF36F8F00BF00BF00BF0023F9
:103148007B607B68E1EE103A00BF00BF0C37BD46DC
:103158005DF8047B704700BF00ED00E030EF00E051
:1031680080B487B000AFF860B9607A603B607B6874
:10317800203B7B61164A7B699A617B699B6923F0D6
:1031880001027B699A613A687B691A603A6A7B69CD
:103198005A607A6A7B699A60BA6A7B69DA607B6985
:1031A8004FF08072DA617A69FB681A65FB68002261
:1031B800C3F8B020FB680022C3F8F820FB68FD22A2
:1031C80083F8F92000BF1C37BD465DF8047B7047C3
:1031D800B111000880B48DB000AF7860264B9B68B1
:1031E8007A689A4202D06FF015033FE0EFF3058347
:1031F800BB62BB6A002B14BF01230023DBB2002B88
:1032080002D06FF0150331E0EFF311837B617B6926
:103218003B611023FB60FB6883F3128800BFBFF398
:103228006F8F00BF3B69FB627B681B7B23F0020347
:10323800DAB27B681A73EFF31483BB61BB6923F0BE
:103248000403FB61FB6983F31488BFF36F8F00BF2E
:1032580000BFFB6A7B627B6A3B623B6A83F311882F
:1032680000BFBFF36F8F00BF00BF0023184634377D
:10327800BD465DF8047B70479C280020F0B585B0FA
:1032880000AFF860B9607A6012F0FFFE0A4AFB6886
:103298009360FB68D3F8AC30084A13607D68BE6859
:1032A8002C4686F309880020054B984720460021C4
:1032B80000220023034C20479C28002018230020CC
:1032C800D7600108B111000880B400AF034B102289
:1032D8001A6100BFBD465DF8047B704700ED00E051
:1032E80080B483B000AF03463960FB7197F90730AB
:1032F800002B0ADB3B68DAB20C4997F90730120158
:10330800D2B20B4483F800230AE03B68DAB20849DA
:10331800FB7903F00F03043B1201D2B20B441A7677
:1033280000BF0C37BD465DF8047B704700E100E044
:1033380000ED00E080B584B000AFEFF305837B605B
:103348007B68FB60FB68103BFB60FB68DB00074A9F
:103358001344BB60BB685B68BA681268104698473C
:10336800FEF73EFF00BF1037BD4680BD540C020873
:1033780080B58AB000AFF860B9607A603B6007F149
:10338800100300221A605A609A60DA601A615A6162
:103398000223BB74084B7B61FB683B62BB687B62A2
:1033A80007F110033A687968184610F0CFF9034618
:1033B80018462837BD4680BD7361010880B582B0C4
:1033C80000AF78603960044B1B6878689847002321
:1033D80018460837BD4680BD1C23002080B483B042
:1033E80000AF7860074A7B681360074B9B7843F00F
:1033F8000203DAB2044B9A7000BF0C37BD465DF881
:10340800047B70471C2300203404002080B582B060
:1034180000AF00237B600C4B073323F007037B606E
:10342800094B073323F00703C3F1005303F50033B7
:103438003B603A687968054811F02FFD002318466B
:103448000837BD4680BD00BF584E0020202300200D
:1034580080B483B000AF7860054B1A6804497B6874
:1034680013430B6000BF0C37BD465DF8047B704703
:10347800003C014080B483B000AF7860064B1A6806
:103488007B68DB43044913400B6000BF0C37BD4623
:103498005DF8047B704700BF003C014080B483B0F6
:1034A80000AF7860054B9A6804497B6813438B60CA
:1034B80000BF0C37BD465DF8047B7047003C0140F7
:1034C80080B483B000AF7860064B9A687B68DB43B2
:1034D800044913408B6000BF0C37BD465DF8047B80
:1034E800704700BF003C014080B483B000AF7860F3
:1034F800054BDA6804497B681343CB6000BF0C377F
:10350800BD465DF8047B7047003C014080B483B041
:1035180000AF7860064BDA687B68DB4304491340E8
:10352800CB6000BF0C37BD465DF8047B704700BF19
:10353800003C014080B483B000AF7860074B5A6903
:103548007B6813407A689A420CBF01230023DBB2E0
:1035580018460C37BD465DF8047B7047003C0140B7
:1035680080B483B000AF7860044A7B68536100BFC1
:103578000C37BD465DF8047B704700BF003C014036
:1035880080B487B000AF78603960174A3B68DBB217
:10359800023352F823203B681B0CDB4302EA030189
:1035A8003B681B0C3B613B6993FAA3F3FB60FB6828
:1035B8007B617B69002B01D1202303E07B69B3FA8F
:1035C80083F3DBB21A467B6803FA02F206483B68CB
:1035D800DBB20A43023340F8232000BF1C37BD4644
:1035E8005DF8047B704700BF0038014080B487B0A5
:1035F80000AF7860104A7B68DBB2023352F82320B0
:103608007B681B0C13407A68120C3A613A6992FA8B
:10361800A2F2FA60FA687A617A69002A01D1202256
:1036280003E07A69B2FA82F2D2B2D34018461C3764
:10363800BD465DF8047B70470038014080B588B00E
:1036480000AF78601F4BBB61BB691B697B617B68FE
:103658003B610023FB772BE03B691B781A46FB7F15
:103668001344FB60FB68DBB2184612F005FEB86035
:10367800B86812F0EAFD0346002B16D0B86812F0BD
:10368800F0FD7B69FA6853F83230002B0CD07B6967
:10369800FA6853F832207969FB68DB000B445B68F1
:1036A8001946B868904700E000BFFB7F0133FB77FD
:1036B8003B695B78FA7F9A42CED900BF00BF2037BA
:1036C800BD4680BD100A020880B584B000AF002353
:1036D800FB600C4BBB603B4600221A605A603B887B
:1036E800442262F30B033B804FF480437B603B46EC
:1036F8001946B86812F06BFDF860FB681846103779
:10370800BD4680BDE809020880B485B000AF034615
:103718003A60FB710B46BB710023FB600AE097F926
:103728000720FB6813443A6851B2084AD154FB6831
:103738000133FB6097F90630FA689A42EFDB00BF65
:1037480000BF1437BD465DF8047B70474404002071
:1037580080B582B000AF7860374B1B785BB2364AD1
:10376800527851B206221846FFF7CEFF00220021F8
:10377800062012F05DFC314B1B785BB22F4A527861
:1037880051B207221846FFF7BFFF00220021072089
:1037980012F04EFC2A4B1B785BB2294A527851B280
:1037A80008221846FFF7B0FF00220021082012F077
:1037B8003FFC244B1B785BB2224A527851B2092253
:1037C8001846FFF7A1FF00220021092012F030FC63
:1037D8001D4B1B785BB21C4A527851B20A2218461C
:1037E800FFF792FF002200210A2012F021FC174B5C
:1037F8001B785BB2154A527851B217221846FFF768
:1038080083FF00220021172012F012FC104B1B78B6
:103818005BB20F4A527851B228221846FFF774FF5C
:1038280000220021282012F003FCFFF74DFF034679
:1038380018460837BD4680BDB43A0208B83A0208AF
:10384800BC3A0208C03A0208C43A0208C83A020858
:10385800CC3A020880B584B000AF7860786812F07E
:103868001AFD0346FB60084AFB68134493F90030CD
:10387800BB607868FFF7ECFDB86812F0CCFB00BFBE
:103888001037BD4680BD00BF4404002080B582B01B
:1038980000AF786039604FF48011002012F0A9FC65
:1038A8003B68032B26D801A252F823F0C53800083C
:1038B800D3380008E1380008EF3800087868FFF7C7
:1038C800FFFD7868FFF722FE15E07868FFF7E6FD50
:1038D8007868FFF71BFE0EE07868FFF705FE78684A
:1038E800FFF7EEFD07E07868FFF7D8FD7868FFF787
:1038F800FBFD00E000BF002012F086FC00BF083787
:10390800BD4680BD80B588B000AFF860B9607A6008
:10391800194BFB61FB691B69BB61F86812F0BBFCC2
:1039280003467B61BB697A6953F83230BA689A42B8
:1039380009D1BA697B69DB0013445B687A689A42EB
:1039480001D1002314E0BB697A6953F83230002BA7
:1039580002D06FF00F030BE0BB697A69B96843F8CE
:103968003210BA697B69DB0013447A685A60002315
:1039780018462037BD4680BD100A020880B586B0BB
:1039880000AF78600C4B7B617B691B693B61786891
:1039980012F081FC0346FB603B69FA68002143F89A
:1039A80032103A69FB68DB00134400225A6000BFFA
:1039B8001837BD4680BD00BF100A020890B599B0FF
:1039C80008AFF860B960C7E90023FB689B687B63B0
:1039D800BB68002B02D16FF0150389E0BB685B79E7
:1039E80003F00103002B03D06FF06043BB6302E0D8
:1039F80040F2FF73BB63BB681A68BB6BDB431340C1
:103A0800002B40D00323002B3AD0012387F8333012
:103A180097F8333083F00103DBB2002B30D1364BFB
:103A28001C68BB685B7903F00103002B01D0334BA2
:103A380000E0334BBA68527902F00102002A01D043
:103A48001D2200E00B22B968497901F00101002923
:103A580001D0082100E00321B868006806900591AC
:103A680004920393274B02930023019300230093AE
:103A7800002301222146002012F0ECFC0023FB6207
:103A88006FF0150334E03B6D002B25D107F11003CF
:103A980001220021184612F05CFC7B6B5C6907F17F
:103AA80010030193184B0093D7E90023B968F8680D
:103AB800A047F863FB6B002B01D0FB6B18E04FF0BD
:103AC800FF304FF0FF3107F1100402460B46204645
:103AD80012F04FFCBB6A0BE07B6B5C697B6D01935A
:103AE8003B6D0093D7E90023B968F868A0470346FF
:103AF80018464437BD4690BD54040020681B020890
:103B0800741B0208801B020899640108F0B593B081
:103B18000AAFF860B9607A603B60FB689B683B61FC
:103B2800BB68002B02D03B68002B02D16FF0150355
:103B38006EE03B681B7A03F00103002B03D06FF0A3
:103B480060437B6102E040F2FF737B613B681A6867
:103B58007B69DB431340002B06D13B685A687B69BD
:103B6800DB431340002B4BD00323002B45D001230C
:103B7800FB76FB7E83F00103DBB2002B3DD1264BA5
:103B88001E683B681B7A03F00103002B01D0234B0E
:103B980000E0234B3A68127A02F00102002A01D0B1
:103BA8001D2200E00B223968097A01F00101002981
:103BB80001D0082100E00321386800683C68247AB5
:103BC80004F00104002C01D0082400E003243D681F
:103BD8006D68089507940690059104920393114B1C
:103BE800029300230193002300930023012231460E
:103BF800002012F02FFC0023FB616FF0150307E093
:103C08003B699C693B687A68B968F868A0470346CD
:103C180018462437BD46F0BD54040020681B02082E
:103C2800741B0208B01B020880B489B000AFF860AA
:103C3800B9607A603B60BB6A9A88BB6A5B88134448
:103C48007B833B689A883B685B8813443B83FB68AB
:103C58009AB2FB68B96801FB03F35349A1FB03134C
:103C68009B099BB2D31ABB833B68DB88BA8B9A4209
:103C780002D83B68DB8806E0BB6ADB88BA8B9342D4
:103C880028BF13469BB2BB83FB689AB2BB8BD31A7F
:103C98009BB2013BFB83FA8B7B8B9A4210D97B8BBF
:103CA800FB83FB689AB2FB8BD31A9BB2013BBB83A5
:103CB800BB6ADB88BA8B9A4217D96FF085036CE030
:103CC800FA8B3B8B9A4210D23B8BFB83FB689AB2F0
:103CD800FB8BD31A9BB2013BBB833B68DB88BA8B57
:103CE8009A4202D26FF0850357E07B68BA8BDA807C
:103CF800FB8B5B089AB23B685B889A4202D83B68A8
:103D08005B8808E0BB6A5A88FB8B5B089BB29342CE
:103D180028BF13469BB27A6853807B685B88FA8B0E
:103D2800D31A9AB27B689A807B689A88BB6A9B8808
:103D38009A420BD9BB6A9A887B689A807B689B8871
:103D4800FA8BD31A9AB27B685A8010E07B689A88FB
:103D58003B689B889A420AD23B689A887B689A801B
:103D68007B689B88FA8BD31A9AB27B685A80FB8B44
:103D780001334FF47A7202FB03F31A46FB68B2FB75
:103D8800F3F37B617A69BB689A4203D97A69BB68A5
:103D9800D31A02E0BA687B69D31A18462437BD469D
:103DA8005DF8047B704700BFD34D621080B485B0C6
:103DB80000AF78607B680C4A934203D940F2EE2347
:103DC800FB810AE07B68094A934203D94FF44873A0
:103DD800FB8102E040F26B33FB81FB891846143704
:103DE800BD465DF8047B704700350C0020A1070034
:103DF80080B594B006AFF860B9607A603B603B6804
:103E08005B8801333A68928813443A68D28813442D
:103E1800FB6207F1140300221A605A601A816FF0DE
:103E280000437B633B6C002B04D0B7F84430B3F5F8
:103E38007A7F02D36FF01503B7E007F11003194634
:103E4800F86812F0E1FAB862BB6A002B02D06FF092
:103E58000403AAE0B7F84430002B05D1386CFFF70B
:103E6800A5FF0346A7F844307B681B8918463A69C2
:103E7800FB6A396C01FB03F3B2FBF3F3834238BFEF
:103E880003463B633EE03B693A6B396C01FB02F247
:103E9800B3FBF2F101FB02F29B1A002B2CD13A6919
:103EA8003B6B396C01FB03F3B2FBF3F3FB62B7F82E
:103EB800441007F114023B6800937B68F86AFFF727
:103EC800B3FEB862BB6A002B18DBBA6A7B6B9A42F6
:103ED80015DABB6A7B63FA8ABB685A803A8BBB687F
:103EE8009A807A8BBB68DA803B6B9AB2BB681A817E
:103EF800BB6A002B0DD002E000BF00E000BF3B6BA7
:103F080001333B633B681B891A463B6B9342BADD1E
:103F180000E000BF7B6B002B1FD00323032B1CD9B1
:103F2800012387F8273097F8273083F00103DBB2A5
:103F3800002B12D11F4B19687B6B04931E4B039304
:103F48001E4B0293082301930023009300230422AD
:103F5800002012F07FFA00233B62BB68DB885B0815
:103F68009AB2BB689B88934228BF13469AB2BB6833
:103F78001A80BB681A887B681B889A4202D87B68BB
:103F88001B8807E03B681A88BB681B88934228BFD8
:103F980013469BB2BA6813807B6B6FF00042934262
:103FA80001D07B6B01E06FF0850318463837BD46BA
:103FB80080BD00BF54040020D03A0208181C020833
:103FC80080B588B002AFF860B9607A607B80F86825
:103FD80012F028FA7861F86812F030FA38617B68D4
:103FE8000A4A934202D96FF015030AE07B880193CD
:103FF8007B6800933B697A69B968F868FFF7F8FE4F
:10400800034618461837BD4680BD00BF40420F0022
:1040180080B598B006AF78607B681B69FB637B68E6
:104028005B68BB63BB6B5B697B6300233B6461E0DC
:104038007B6B03F5D873BB62BB6A5B681B0ADBB298
:104048007B620323032B1CD9012387F8233097F8BD
:10405800233083F00103DBB2002B12D13C4B1968EB
:104068007B6A04933B4B03933B4B029308230193D6
:104078000023009300230422002012F0A5FB002354
:10408800FB6107F108031946B86A12F0D4FB7B6A92
:10409800062B0DDCFA6B7B6A22339B0013445B68AA
:1040A8003B64FB6B7A6A383253F822307B6412E047
:1040B8007B6A222B0FDC7B6A073BBB61FA6BBB690F
:1040C80014339B0013445B683B64FB6BBA692A3268
:1040D80053F822307B643B6C002B05D007F10801B4
:1040E8003B6C7A6C786898477B6BDB6843F02002FE
:1040F8007B6BDA607B6BDB6803F00303002B97D1E3
:104108007B6BDB6803F01003002B1CD00323002B10
:1041180019D0012387F8333097F8333083F001033F
:10412800DBB2002B0FD10A4B19680C4B029300230A
:1041380001930023009300230122002012F044FB86
:104148000023FB62FFE700BF4837BD4680BD00BFC4
:1041580058040020843B0208481C0208641C02081A
:1041680080B584B000AF78607B681B6843F00102BB
:104178007B681A6012F032FAF86010E012F02EFA3A
:104188000246FB68D31A0B4A934208D97B681B681E
:1041980023F001027B681A606FF00A0306E07B686F
:1041A8005B6803F00103002BE8D0002318461037A2
:1041B800BD4680BD80A2190080B584B000AF78608C
:1041C8007B681B6823F001027B681A6012F006FA0C
:1041D800F8600AE012F002FA0246FB68D31A084AAD
:1041E800934202D96FF00A0306E07B685B6803F02C
:1041F8000103002BEED1002318461037BD4680BDC1
:1042080080A2190080B584B000AF78607B681B6815
:1042180023F002027B681A6012F0E0F9F8600AE005
:1042280012F0DCF90246FB68D31A084A934202D915
:104238006FF00A0306E07B685B6803F00203002B5B
:10424800EED1002318461037BD4680BD80A2190064
:1042580080B58EB004AF78607B685B683B627B6832
:104268001B69FB613B6A5B69BB6100237B62FB697D
:1042780003F110014FF0FF324FF0FF33084612F000
:10428800C0F9FB691B79002B03D06FF077037B62C1
:104298005EE03B6A1B68002B29D03B6A1A68FB6901
:1042A8001B681946104612F013FA78627B6A002BD5
:1042B8001DD00323002B19D00123FB75FB7D83F050
:1042C8000103DBB2002B11D1274B19687B6A0393DA
:1042D800264B02930023019300230093002301221D
:1042E800002012F071FA00233B6131E030E0B86938
:1042F800FFF762FF78627B6A002B26DA0323002B24
:1043080016D00123FB73FB7B83F00103DBB2002B88
:104318000ED1154B1968164B029300230193002305
:10432800009300230122002012F04EFA0023BB6004
:104338003B6A1B68002B04D03B6A1B68184612F0C6
:10434800D7F96FF004037B6202E0FB6901221A715E
:10435800FB691033184612F064F9796A0B4618465F
:104368002837BD4680BD00BF58040020781C0208CD
:10437800A41C020880B58EB004AF78607B685B68C7
:104388003B627B681B69FB613B6A5B69BB6100231D
:104398007B62FB6903F110014FF0FF324FF0FF33EE
:1043A800084612F02EF9FB691B7983F00103DBB292
:1043B800002B03D06FF077037B6272E0B869FFF7D8
:1043C800CFFE78627B6A002B1DDA0323002B16D000
:1043D8000123FB73FB7B83F00103DBB2002B0ED1BF
:1043E800354B1968354B0293002301930023009342
:1043F80000230122002012F0E7F90023BB606FF0D0
:1044080004037B624DE0FB693C336FF0720219468E
:10441800786812F0F7F9FB6944336FF072021946B5
:10442800786812F0EFF9FB694C336FF072021946A5
:10443800786812F0E7F9BB699B6843F0801343F48E
:104448000043BA6993603B6A1B68002B26D03B6A1D
:104458001B68184612F04CF978627B6A002B1DD055
:104468000323002B19D00123FB75FB7D83F0010387
:10447800DBB2002B11D1104B19687B6A0393104BE8
:1044880002930023019300230093002301220020BC
:1044980012F09AF900233B6103E002E0FB69002275
:1044A8001A71FB691033184612F0BBF8796A0B468B
:1044B80018462837BD4680BD58040020C01C020895
:1044C800781C020880B590B006AF786039600B237D
:1044D8007B627B685B683B623B6A5B69FB617B680C
:1044E8001B69BB610323032B1AD90123FB75FB7DD1
:1044F80083F00103DBB2002B12D1464B19683B68ED
:104508000493454B0393454B0293082301930023DF
:10451800009300230422002012F056F900233B6187
:104528007B6ADA433B681340002B1ED00323002B21
:1045380018D00123FB73FB7B83F00103DBB2002B54
:1045480010D1344B19683B680393354B0293002311
:1045580001930023009300230122002012F034F974
:104568000023BB606FF085014FE0BB691B79002B0E
:1045780002D06FF00F0148E0BB6903F110014FF062
:10458800FF324FF0FF33084612F03BF83B6803F068
:104598000103002B06D0FB69DB6943F08042FB690D
:1045A800DA6105E0FB69DB6923F08042FB69DA61C7
:1045B8003B6803F00203002B06D0FB69DB6943F07C
:1045C8000042FB69DA6105E0FB69DB6923F0004220
:1045D800FB69DA613B6803F00803002B06D0FB692E
:1045E8001B6843F01002FB691A6005E0FB691B6851
:1045F80023F01002FB691A60BB693A681A60BB694C
:104608001033184612F00DF800210B4618462837CB
:10461800BD4680BD58040020A03B0208DC1C0208EF
:10462800EC1C020880B586B000AF786039607B6802
:104638005B687B617B695B693B617B681B69FB60CD
:10464800FB6803F110014FF0FF324FF0FF330846CB
:1046580011F0D7FFFB681B79002B07D0FB681033DC
:10466800184611F0DEFF6FF00F0126E03B69DA69AA
:10467800144B13403A681288013A120602F040724D
:104688001A433B689B88013B1B0403F470231A43BD
:104698003B68DB88013B1B0503F4E0031A433B68D6
:1046A8001B89013BC3F309031A433B69DA61FB68C1
:1046B8001033184611F0B5FF00210B46184618377D
:1046C800BD4680BD00FC80FC80B58CB004AF78602E
:1046D80039607B685B68FB61184BBB61FB691C3305
:1046E8003A681946B86912F023F878617B69002B9B
:1046F8001ED00323002B18D00123FB74FB7C83F00E
:104708000103DBB2002B10D10D4B19687B690393B1
:104718000C4B0293002301930023009300230122F2
:10472800002012F051F80023FB606FF0040300E052
:10473800002318462037BD4680BD00BFE80902089F
:1047480058040020081D020880B5A6B008AF78609C
:104758007B685B683B667B681B69BB663B6E5B6915
:104768007B6607F10C0300221A605A601A8186489A
:1047780011F03BFFBB6E1033184611F036FFBB6ECD
:10478800243301220021184611F057FF3B6E1B68A5
:10479800002B29D03B6E1B68184611F00CFF03460E
:1047A80083F00103DBB2002B1ED00323002B18D0AB
:1047B800012387F86F3097F86F3083F00103DBB27D
:1047C800002B0ED1714B1968714B02930023019392
:1047D8000023009300230122002011F0F5FF00239D
:1047E8003B676FF01203A8E16A4B7B67786F11F0A3
:1047F800E2FE034683F00103DBB2002B1CD0032347
:10480800002B16D00123FB77FB7F83F00103DBB27B
:10481800002B0ED15D4B19685F4B02930023019367
:104828000023009300230122002011F0CDFF002374
:10483800BB616FF0120380E13B6E1C331946786F41
:1048480011F064FFF865FB6D002B20D00323002BCB
:104858001AD0012387F8273097F8273083F001030F
:10486800DBB2002B10D1494B1968FB6D03934B4BFE
:1048780002930023019300230093002301220020C8
:1048880011F0A2FF00233B626FF0040355E13B6E79
:104898009B6A0021184611F07AFFF865FB6D002B22
:1048A8001FDA0323002B1AD0012387F82F3097F83B
:1048B8002F3083F00103DBB2002B10D1334B196882
:1048C800FB6D0393364B029300230193002300935F
:1048D80000230122002011F077FF0023BB62FB6D4B
:1048E8002BE1786EFFF73CFCF865FB6D002B1DD0C3
:1048F8000323002B18D0012387F8373097F8373077
:1049080083F00103DBB2002B0ED1204B1968254B35
:104918000293002301930023009300230122002027
:1049280011F052FF00233B63FB6D06E1786EFFF741
:1049380069FCF865FB6D002B1DD00323002B18D0F4
:10494800012387F83F3097F83F3083F00103DBB24B
:10495800002B0ED10D4B1968134B029300230193C2
:104968000023009300230122002011F02DFF0023D3
:10497800BB63FB6DE1E03B6E5A693B6E9B699A42F3
:1049880014D1002313E000BFAC23002058040020FA
:10499800381D0208E8090208541D0208741D02089F
:1049A800A01D0208C01C0208C01D02080E23BB651A
:1049B8003B6E9B69D3F800223B6E9B6942F0010273
:1049C800C3F800223B6E9B69D3F80C127F22BB6DA3
:1049D8009A403B6E9B690A43C3F80C223B6E9B6965
:1049E800D3F800223B6E9B6922F00102C3F8002233
:1049F8007B6E1B6823F0FC027B6E1A607B6E1B6863
:104A080043F040027B6E1A603B6EDA683B6E1B8A8D
:104A180007F10C01786811F03BFEF865FB6D13F1A6
:104A2800160F1ED10323002B18D0012387F8473017
:104A380097F8473083F00103DBB2002B0ED1414BCE
:104A48001968414B0293002301930023009300232C
:104A58000122002011F0B8FE00233B646FF004032C
:104A68006BE00323032B20D9012387F8573097F8ED
:104A7800573083F00103DBB2002B16D1314B196894
:104A8800BB8A3A8A788A0690059204932F4B03933F
:104A98002F4B029308230193002300930023042241
:104AA800002011F091FE00233B650323032B1CD942
:104AB800012387F84F3097F84F3083F00103DBB2BA
:104AC800002B12D11F4B1968FB6D04931F4B0393E6
:104AD800204B029308230193002300930023042210
:104AE800002011F071FE0023BB6407F10C03194686
:104AF800786811F0DFFDF865FB6D002B01D0FB6DC8
:104B08001BE000217868FFF7DDFCF865FB6D002BE2
:104B180001D0FB6D11E0BB6EFC33002219467868AA
:104B280011F0CDFE3B6E5B6A786E98477B6E5B69D1
:104B380043F001027B6E5A61002318467837BD4660
:104B480080BD00BF58040020DC1D0208B43B0208E9
:104B5800001E0208201E0208B0B5A2B00AAFF86015
:104B6800B960C7E90023FB685B683B64FB681B69A5
:104B7800FB633B6C5B69BB630023BB650023FB6481
:104B88000023BB640323032B39D9012387F847305B
:104B980097F8473083F00103DBB2002B2FD19C4BF1
:104BA8001C68BB681B791D46FB681B68BA681268DD
:104BB800B968497901F00101002901D0954900E05F
:104BC8009549B868407900F00200002801D0934860
:104BD80000E0934808900791069205930495914B3D
:104BE8000393914B0293082301930023009300231E
:104BF80004222146002011F0E7FD0023FB65BB6875
:104C08001B79082B22D90323002B1CD00123FB7509
:104C1800FB7D83F00103DBB2002B14D17C4B1968B8
:104C2800BB681B791A460823049303927F4B0293AF
:104C3800002301930023009300230122002011F098
:104C4800C3FD00233B616FF0150374E1BB685B791A
:104C5800032B1FD90323002B19D00123FB77FB7FDC
:104C680083F00103DBB2002B11D1694B1968BB68D3
:104C78005B7903936E4B0293002301930023009307
:104C880000230122002011F09FFD0023BB616FF07B
:104C9800850350E1FB6B1B7983F00103DBB2002B2A
:104CA80002D06FF0720346E1BB6B9B6903F004030B
:104CB800002B02D06FF071033DE1FB6B03F1100490
:104CC8004FF0FF304FF0FF3102460B46204611F0FF
:104CD80098FCBB6B9B68BB653FE0FB6B10331846C9
:104CE80011F09FFC0323032B1AD9012387F82730DF
:104CF80097F8273083F00103DBB2002B10D1444B27
:104D08001968484B03934B4B0293082301930023E4
:104D1800009300230422002011F056FD00233B627B
:104D2800FB6B03F12401D7E90023084611F095FC39
:104D38000346002B02D06FF00A03FCE0FB6B03F183
:104D480010044FF0FF304FF0FF3102460B4620466B
:104D580011F057FCBB6B9B68BB65BB6D03F0E05360
:104D6800002BBAD0BB6D03F08063002B25D0032342
:104D7800032B1AD9012387F82F3097F82F3083F0A7
:104D88000103DBB2002B10D1214B1968254B03938B
:104D9800294B029308230193002300930023042244
:104DA800002011F011FD0023BB62BB6B03F5C0733B
:104DB800FB64FB6B3C33BB646CE0BB6D03F00063CE
:104DC800002B3DD00323032B1AD9012387F8373052
:104DD80097F8373083F00103DBB2002B10D10C4B6E
:104DE8001968104B0393154B029308230193002372
:104DF800009300230422002011F0E6FC00233B630B
:104E0800BB6B03F5C873FB64FB6B4433BB6441E0C5
:104E1800580400203C1E0208481E0208541E0208BE
:104E2800581E0208C43B02085C1E0208A01E0208A5
:104E3800C01E0208E41E0208001F0208181F02080C
:104E4800BB6D03F08053002B24D00323032B1AD906
:104E5800012387F8573097F8573083F00103DBB206
:104E6800002B10D1364B1968364B0393364B0293FF
:104E7800082301930023009300230422002011F04B
:104E8800A3FC00233B65BB6B03F5D073FB64FB6B92
:104E98004C33BB64BB6C3A6F1A60BB6C7A6F5A6058
:104EA800FB6C1B6803F00102FB6C1A60BB685B7942
:104EB80003F00103002B0AD0FB6C1A68BB681B685F
:104EC800DB00134343F00402FB6C1A6007E0FB6C41
:104ED8001A68BB681B685B051A43FB6C1A60BB68E1
:104EE8005B7903F00203002B06D0FB6C1B6843F0D0
:104EF8000202FB6C1A6007E0BB689A68FB6C9A6058
:104F0800BB68DA68FB6CDA60FB6C5B6823F00F0245
:104F1800BB681B7903F00F031A43FB6C5A60FB6CE8
:104F28001B6843F00102FB6C1A60FB6B10331846D8
:104F380011F077FB002318466037BD46B0BD00BFAF
:104F480058040020C43B0208301F020880B598B0FE
:104F580008AF786039607B685B683B627B681B6977
:104F6800FB613B6A9B69BB610023FB6200233B63D7
:104F78006FF01B03FB630023BB633B6A5A693B6A00
:104F88009B699A4201D00E23BB633B681B7A03F0EE
:104F98000103002B20D00023BB6219E0FA69BB6A29
:104FA80022339B0013445B68002B0ED1386811F044
:104FB800B1FE3863386811F08CFEF862BB6AFB6397
:104FC800BA6BBB6A13447B632BE0BB6A0133BB62D9
:104FD800BB6A062BE2DD24E000237B621EE0FA694F
:104FE8007B6A14339B0013445B68002B13D1386829
:104FF80011F083FE3863386811F057FEF8627B6A57
:105008000733FB63BB6BDA1D7B6AD90F0B445B105C
:1050180013447B6305E07B6A01337B627B6A0D2B5B
:10502800DDDDFB6B13F11C0F53D00323032B20D9B9
:105038000123FB73FB7B83F00103DBB2002B18D148
:10504800334B19683B681B683A68526806920593A7
:10505800FB6B04932F4B03932F4B0293082301936D
:105068000023009300230422002011F0ADFB00234D
:10507800BB60BB69D3F8003243F00102BB69C3F8D7
:1050880000227B6B4833DB00BA69D1183B681B7A76
:1050980003F00103002B14BF01230023DAB2FB6ADB
:1050A80000933B6BF86B11F0D5FDBB69D3F81C225C
:1050B80001217B6B01FA03F31A43BB69C3F81C2275
:1050C800BB69D3F8003223F00102BB69C3F80022A0
:1050D80019E00323012B16D90123FB75FB7D83F00F
:1050E8000103DBB2002B0ED1094B19680B4B02935D
:1050F800002301930023009300230222002011F0D3
:1051080063FB00233B61FB6B18464037BD4680BDFF
:1051180058040020D43B0208481F02087C1F0208DC
:1051280080B58CB004AFF860B9607A603B60FB680A
:105138001B69FB613B681B7A012B1FD90323002BDA
:1051480019D00123FB75FB7D83F00103DBB2002B33
:1051580011D12F4B19683B681B7A03932D4B02938F
:10516800002301930023009300230122002011F063
:105178002BFB00233B616FF0850144E04FF0FF32C9
:105188004FF0FF33244811F03CFAFB6903F110019A
:105198004FF0FF324FF0FF33084611F032FA39680A
:1051A800F868FFF7D3FEB861BB69002B22DB3B68C8
:1051B8001B7A03F00103002B0DD0FA69BB69223377
:1051C8009B001344BA685A60FB69BA693832796837
:1051D80043F822100EE0BB69073BFA6914339B00C1
:1051E8001344BA685A60BB69DA1FFB692A327968C6
:1051F80043F82210FB691033184611F012FA0648DA
:1052080011F00FFAB9690B4618462037BD4680BD24
:1052180058040020901F0208AC23002080B596B0E7
:1052280006AF786039607B685B68FB627B681B69E6
:10523800BB62FB6A9B697B6200233B633B68002B74
:1052480002DB3B68222B1EDD0323002B00F00A81C2
:105258000123FB73FB7B83F00103DBB2002B40F0DF
:105268000181824B19683B680393814B02930023A9
:1052780001930023009300230122002011F0A4FAD7
:105288000023BB60EEE04FF0FF324FF0FF33794868
:1052980011F0B7F9BB6A03F110014FF0FF324FF07C
:1052A800FF33084611F0ADF9FB6A5A69FB6A9B693E
:1052B8009A4201D00E233B633B68062B17DC01237F
:1052C80087F837303A6B3B681344BB63BA6A3B686C
:1052D80022339B00134400225A60BB6A3A68383272
:1052E800002143F82210012387F83F3045E03B684E
:1052F800073B3B62002387F837303B6BDA1D3B687E
:10530800073BD90F0B445B101344BB63BA6A3B6A73
:1053180014339B00134400225A60BB6A3A6A2A324B
:10532800002143F822103B6A002B03F00103B8BFA9
:105338005B42012B0DD13B6A013BBA6A14339B00D7
:1053480013445B68002B0CBF0123002387F83F3010
:1053580013E03B6A0C2B0DDC3B6A0133BA6A143349
:105368009B0013445B68002B0CBF0123002387F8C4
:105378003F3002E0012387F83F300323032B1DD978
:105388000123FB77FB7F83F00103DBB2002B15D1F0
:10539800364B196897F8373005933B680493364BBA
:1053A8000393364B029308230193002300930023B1
:1053B8000422002011F008FA0023BB617B6AD3F8AD
:1053C800003243F001027B6AC3F80022BB6B48330A
:1053D800DB007A6AD11897F837204FF0FF33009333
:1053E8000023386811F036FC97F83F30002B29D09D
:1053F8007B6AD3F81C220121BB6B01FA03F3DB4360
:105408001A407B6AC3F81C220323032B1AD90123F1
:10541800FB75FB7D83F00103DBB2002B12D1134B2C
:105428001968BB6B0493144B0393154B0293082321
:1054380001930023009300230422002011F0C4F9F3
:1054480000233B617B6AD3F8003223F001027B6AB8
:10545800C3F80022BB6A1033184611F0E2F8054879
:1054680011F0DFF84037BD4680BD00BF580400206A
:10547800B41F0208AC230020EC3B0208D01F02082E
:10548800F41F020880B400AF054B1B68044A23F4DC
:105498008023136000BFBD465DF8047B704700BFE2
:1054A8000038024080B400AF054B1B68044A43F43F
:1054B8008033136000BFBD465DF8047B704700BFB2
:1054C8000038024080B400AF074B1B6803F4003378
:1054D800B3F5003F0CBF01230023DBB21846BD46DD
:1054E8005DF8047B704700BF0038024080B400AF0D
:1054F800054B1B68044A43F00103136000BFBD4617
:105508005DF8047B704700BF0038024080B400AFEC
:10551800064B1B6803F00203022B0CBF0123002378
:10552800DBB21846BD465DF8047B70470038024080
:1055380080B400AF054B5B6F044A43F00103536727
:1055480000BFBD465DF8047B704700BF00380240CD
:1055580080B400AF064B5B6F03F00203022B0CBF55
:1055680001230023DBB21846BD465DF8047B704773
:105578000038024080B483B000AF7860064B9B6867
:1055880023F0030204497B6813438B6000BF0C3788
:10559800BD465DF8047B70470038024080B400AF18
:1055A800044B9B6803F00C031846BD465DF8047B6A
:1055B800704700BF0038024080B483B000AF786005
:1055C800064B9B6823F0F00204497B6813438B6009
:1055D80000BF0C37BD465DF8047B704700380240B9
:1055E80080B483B000AF7860064B9B6823F4E05228
:1055F80004497B6813438B6000BF0C37BD465DF8D8
:10560800047B70470038024080B483B000AF7860F4
:10561800064B9B6823F4604204497B6813438B6004
:1056280000BF0C37BD465DF8047B70470038024068
:1056380080B400AF044B9B6803F0F0031846BD46E6
:105648005DF8047B704700BF0038024080B400AFAB
:10565800054B1B68044A43F08073136000BFBD46C6
:105668005DF8047B704700BF0038024080B400AF8B
:10567800054B1B68044A23F08073136000BFBD46C6
:105688005DF8047B704700BF0038024080B400AF6B
:10569800074B1B6803F00073B3F1007F0CBF0123B5
:1056A8000023DBB21846BD465DF8047B704700BF97
:1056B8000038024080B485B000AF78600023FB60FA
:1056C8007B68013B092B2BD801A252F823F000BFBD
:1056D8002F570008095700082F57000801570008DE
:1056E8002F5700082F5700082F5700081157000898
:1056F80019570008215700086FF08503FB6013E075
:105708006FF08503FB600FE06FF08503FB600BE033
:105718006FF08503FB6007E06FF08503FB6003E033
:105728006FF0850301E000BFFB6818461437BD46DB
:105738005DF8047B704700BF80B58AB000AFF860A1
:10574800B9607A60BB687B62834B1B683B6204214B
:10575800386A11F053FBF8610221386A11F04EFBE8
:10576800B8613B6A7B617B6A1B88C3F30B039BB2FE
:10577800442B00F39380002B40F3D380013B432B51
:1057880000F2CF8001A252F823F000BFD3580008DE
:1057980009590008115900081B5900082359000825
:1057A800DD580008F35800082B5900082B59000849
:1057B8002B5900082B5900082B5900082B590008B1
:1057C8002B5900082B5900082B5900082B590008A1
:1057D8002B5900082B5900082B5900082B59000891
:1057E8002B5900082B5900082B5900082B59000881
:1057F8002B5900082B5900082B5900082B59000871
:105808002B5900082B5900082B5900082B59000860
:105818002B5900082B5900082B5900082B59000850
:105828002B5900082B5900082B5900082B59000840
:105838002B5900082B5900082B5900082B59000830
:105848002B5900082B590008AB5800082B590008A1
:105858002B5900082B590008AB5800082B59000891
:105868002B5900082B590008B35800082B59000879
:105878002B5900082B5900082B5900082B590008F0
:105888002B5900082B590008BB5800082B59000851
:105898002B5900082B590008C3580008A82B10D012
:1058A8003FE07B683A6A1A603EE07B687A691A6072
:1058B8003AE07B68FA691A6036E07B68BA691A6070
:1058C80032E07B687A691A602EE0234B1A687B689D
:1058D8001A6029E000F026F90223A822062111F017
:1058E80076FA02467B681A601EE000F01BF9042372
:1058F800A822062111F06BFA02467B681A6013E0B1
:105908007B6800221A600FE07B684FF4FA421A6045
:105918000AE07B6800221A6006E07B680F4A1A607A
:1059280002E06FF0850313E07B6A1B6823F47F6352
:1059380023F00F03002B0AD07B681B687A6A126871
:10594800C2F313320132B3FBF2F27B681A60002310
:1059580018462837BD4680BD90090020001BB700B7
:1059680080B500AFFFF71AFE0346082B04D111F0EB
:1059780076FB0020FFF720FEFFF778FE00BFFFF759
:1059880085FE0346002BFAD10D4B5B680C4A23F4C5
:10599800403353600A4B5B6823F07063084A43F056
:1059A8008063536011F0A0FBFFF750FE00BFFFF7C4
:1059B8006DFE0346012BFAD100BF00BF80BD00BFBA
:1059C8000038024090B585B000AF786011F09FFBB9
:1059D800224811F076FB08F031FE0446FFF728FE56
:1059E80003461B0903F00F031D4AD35C24FA03F393
:1059F800FB601B4B1B781A46184B1341BB60FA68B7
:105A0800BB689A4202D2B86809F058FA11F042FB12
:105A1800FFF7A6FF0020FFF7CFFD0220FFF7AAFD42
:105A280000BFFFF7BBFD0346082BFAD1FA68BB6835
:105A38009A4202D3B86809F041FA0A4B074A1A6039
:105A48004FF4A050FFF7CCFD4FF40040FFF7DCFD0A
:105A5800002318461437BD4690BD00BF007A030ADC
:105A68006C4602089009002080B485B000AF7860C9
:105A7800084B1A6C07497B6813430B64054B1A6C77
:105A88007B681340FB60FB6800BF1437BD465DF8B8
:105A9800047B70470038024080B485B000AFF860DE
:105AA800B9607A603B600D4B5A680D4B1340F9683A
:105AB800BA6811437A6892010A43084913434B6054
:105AC800064B5B6823F4403204493B6813434B6040
